{
  "contractName": "Metadata",
  "abi": [
    {
      "inputs": [
        {
          "internalType": "string",
          "name": "_bullBase",
          "type": "string"
        },
        {
          "internalType": "string",
          "name": "_fishermenBase",
          "type": "string"
        },
        {
          "internalType": "string[]",
          "name": "_colors",
          "type": "string[]"
        }
      ],
      "stateMutability": "nonpayable",
      "type": "constructor"
    },
    {
      "inputs": [],
      "name": "name",
      "outputs": [
        {
          "internalType": "string",
          "name": "",
          "type": "string"
        }
      ],
      "stateMutability": "view",
      "type": "function",
      "constant": true
    },
    {
      "inputs": [],
      "name": "symbol",
      "outputs": [
        {
          "internalType": "string",
          "name": "",
          "type": "string"
        }
      ],
      "stateMutability": "view",
      "type": "function",
      "constant": true
    },
    {
      "inputs": [
        {
          "internalType": "bool",
          "name": "_isWhale",
          "type": "bool"
        },
        {
          "internalType": "string",
          "name": "_trait",
          "type": "string"
        },
        {
          "internalType": "string[]",
          "name": "_names",
          "type": "string[]"
        },
        {
          "internalType": "string[]",
          "name": "_imgs",
          "type": "string[]"
        }
      ],
      "name": "createTrait",
      "outputs": [],
      "stateMutability": "nonpayable",
      "type": "function"
    },
    {
      "inputs": [
        {
          "internalType": "address",
          "name": "_owner",
          "type": "address"
        }
      ],
      "name": "setOwner",
      "outputs": [],
      "stateMutability": "nonpayable",
      "type": "function"
    },
    {
      "inputs": [
        {
          "internalType": "contract GameInterface",
          "name": "_wg",
          "type": "address"
        }
      ],
      "name": "setGame",
      "outputs": [],
      "stateMutability": "nonpayable",
      "type": "function"
    },
    {
      "inputs": [
        {
          "internalType": "contract GameInterface",
          "name": "_wg",
          "type": "address"
        }
      ],
      "name": "deploySetGame",
      "outputs": [],
      "stateMutability": "nonpayable",
      "type": "function"
    },
    {
      "inputs": [],
      "name": "GameAddress",
      "outputs": [
        {
          "internalType": "address",
          "name": "",
          "type": "address"
        }
      ],
      "stateMutability": "view",
      "type": "function",
      "constant": true
    },
    {
      "inputs": [],
      "name": "owner",
      "outputs": [
        {
          "internalType": "address",
          "name": "",
          "type": "address"
        }
      ],
      "stateMutability": "view",
      "type": "function",
      "constant": true
    },
    {
      "inputs": [
        {
          "internalType": "uint256",
          "name": "_tokenId",
          "type": "uint256"
        }
      ],
      "name": "tokenURI",
      "outputs": [
        {
          "internalType": "string",
          "name": "",
          "type": "string"
        }
      ],
      "stateMutability": "view",
      "type": "function",
      "constant": true
    },
    {
      "inputs": [
        {
          "internalType": "uint256",
          "name": "_tokenId",
          "type": "uint256"
        }
      ],
      "name": "getSVG",
      "outputs": [
        {
          "internalType": "string",
          "name": "",
          "type": "string"
        }
      ],
      "stateMutability": "view",
      "type": "function",
      "constant": true
    },
    {
      "inputs": [
        {
          "internalType": "bytes32",
          "name": "_seed",
          "type": "bytes32"
        },
        {
          "internalType": "bool",
          "name": "_isWhale",
          "type": "bool"
        }
      ],
      "name": "getRawSVG",
      "outputs": [
        {
          "internalType": "string",
          "name": "svg",
          "type": "string"
        }
      ],
      "stateMutability": "view",
      "type": "function",
      "constant": true
    },
    {
      "inputs": [
        {
          "internalType": "uint256",
          "name": "_tokenId",
          "type": "uint256"
        }
      ],
      "name": "getTraits",
      "outputs": [
        {
          "internalType": "string[]",
          "name": "traits",
          "type": "string[]"
        },
        {
          "internalType": "string[]",
          "name": "values",
          "type": "string[]"
        }
      ],
      "stateMutability": "view",
      "type": "function",
      "constant": true
    },
    {
      "inputs": [
        {
          "internalType": "bytes32",
          "name": "_seed",
          "type": "bytes32"
        },
        {
          "internalType": "bool",
          "name": "_isWhale",
          "type": "bool"
        }
      ],
      "name": "getRawTraits",
      "outputs": [
        {
          "internalType": "string[]",
          "name": "traits",
          "type": "string[]"
        },
        {
          "internalType": "string[]",
          "name": "values",
          "type": "string[]"
        },
        {
          "internalType": "uint256[]",
          "name": "indexes",
          "type": "uint256[]"
        }
      ],
      "stateMutability": "view",
      "type": "function",
      "constant": true
    }
  ],
  "bytecode": "0x60806040526040518060400160405280601281526020017f42756c6c7320262042656172732047616d650000000000000000000000000000815250600090805190602001906200005192919062000179565b506040518060400160405280600181526020017f4700000000000000000000000000000000000000000000000000000000000000815250600190805190602001906200009f92919062000179565b50348015620000ad57600080fd5b50604051620033ad380380620033ad8339818101604052810190620000d3919062000597565b33600260000160006101000a81548173ffffffffffffffffffffffffffffffffffffffff021916908373ffffffffffffffffffffffffffffffffffffffff160217905550826002800160000190805190602001906200013492919062000179565b5081600260040160000190805190602001906200015392919062000179565b5080600260060190805190602001906200016f9291906200020a565b50505050620006b5565b82805462000187906200067f565b90600052602060002090601f016020900481019282620001ab5760008555620001f7565b82601f10620001c657805160ff1916838001178555620001f7565b82800160010185558215620001f7579182015b82811115620001f6578251825591602001919060010190620001d9565b5b50905062000206919062000271565b5090565b8280548282559060005260206000209081019282156200025e579160200282015b828111156200025d5782518290805190602001906200024c92919062000179565b50916020019190600101906200022b565b5b5090506200026d919062000290565b5090565b5b808211156200028c57600081600090555060010162000272565b5090565b5b80821115620002b45760008181620002aa9190620002b8565b5060010162000291565b5090565b508054620002c6906200067f565b6000825580601f10620002da5750620002fb565b601f016020900490600052602060002090810190620002fa919062000271565b5b50565b6000604051905090565b600080fd5b600080fd5b600080fd5b600080fd5b6000601f19601f8301169050919050565b7f4e487b7100000000000000000000000000000000000000000000000000000000600052604160045260246000fd5b62000367826200031c565b810181811067ffffffffffffffff821117156200038957620003886200032d565b5b80604052505050565b60006200039e620002fe565b9050620003ac82826200035c565b919050565b600067ffffffffffffffff821115620003cf57620003ce6200032d565b5b620003da826200031c565b9050602081019050919050565b60005b8381101562000407578082015181840152602081019050620003ea565b8381111562000417576000848401525b50505050565b6000620004346200042e84620003b1565b62000392565b90508281526020810184848401111562000453576200045262000317565b5b62000460848285620003e7565b509392505050565b600082601f83011262000480576200047f62000312565b5b8151620004928482602086016200041d565b91505092915050565b600067ffffffffffffffff821115620004b957620004b86200032d565b5b602082029050602081019050919050565b600080fd5b6000620004e6620004e0846200049b565b62000392565b905080838252602082019050602084028301858111156200050c576200050b620004ca565b5b835b818110156200055a57805167ffffffffffffffff81111562000535576200053462000312565b5b80860162000544898262000468565b855260208501945050506020810190506200050e565b5050509392505050565b600082601f8301126200057c576200057b62000312565b5b81516200058e848260208601620004cf565b91505092915050565b600080600060608486031215620005b357620005b262000308565b5b600084015167ffffffffffffffff811115620005d457620005d36200030d565b5b620005e28682870162000468565b935050602084015167ffffffffffffffff8111156200060657620006056200030d565b5b620006148682870162000468565b925050604084015167ffffffffffffffff8111156200063857620006376200030d565b5b620006468682870162000564565b9150509250925092565b7f4e487b7100000000000000000000000000000000000000000000000000000000600052602260045260246000fd5b600060028204905060018216806200069857607f821691505b60208210811415620006af57620006ae62000650565b5b50919050565b612ce880620006c56000396000f3fe608060405234801561001057600080fd5b50600436106100cf5760003560e01c806395d89b411161008c578063c6aad93e11610066578063c6aad93e146101fe578063c87b56dd14610230578063e1dc076114610260578063f418e05314610291576100cf565b806395d89b411461019457806397964922146101b2578063be985ac9146101ce576100cf565b806306fdde03146100d457806313af4035146100f25780633061ec381461010e5780636aadb4dd1461012a578063819912a21461015a5780638da5cb5b14610176575b600080fd5b6100dc6102af565b6040516100e991906115ff565b60405180910390f35b61010c60048036038101906101079190611693565b61033d565b005b610128600480360381019061012391906116fe565b6103c3565b005b610144600480360381019061013f9190611799565b610488565b60405161015191906115ff565b60405180910390f35b610174600480360381019061016f91906116fe565b610649565b005b61017e6106cf565b60405161018b91906117e8565b60405180910390f35b61019c6106fc565b6040516101a991906115ff565b60405180910390f35b6101cc60048036038101906101c79190611a1e565b61078a565b005b6101e860048036038101906101e39190611b0f565b6108a4565b6040516101f591906115ff565b60405180910390f35b61021860048036038101906102139190611799565b610961565b60405161022793929190611d06565b60405180910390f35b61024a60048036038101906102459190611b0f565b610ce2565b60405161025791906115ff565b60405180910390f35b61027a60048036038101906102759190611b0f565b611046565b604051610288929190611d52565b60405180910390f35b61029961110b565b6040516102a691906117e8565b60405180910390f35b600080546102bc90611db8565b80601f01602080910402602001604051908101604052809291908181526020018280546102e890611db8565b80156103355780601f1061030a57610100808354040283529160200191610335565b820191906000526020600020905b81548152906001019060200180831161031857829003601f168201915b505050505081565b6103456106cf565b73ffffffffffffffffffffffffffffffffffffffff163373ffffffffffffffffffffffffffffffffffffffff161461037c57600080fd5b80600260000160006101000a81548173ffffffffffffffffffffffffffffffffffffffff021916908373ffffffffffffffffffffffffffffffffffffffff16021790555050565b6103cb6106cf565b73ffffffffffffffffffffffffffffffffffffffff163273ffffffffffffffffffffffffffffffffffffffff161480156104385750600073ffffffffffffffffffffffffffffffffffffffff1661042061110b565b73ffffffffffffffffffffffffffffffffffffffff16145b61044157600080fd5b80600260010160006101000a81548173ffffffffffffffffffffffffffffffffffffffff021916908373ffffffffffffffffffffffffffffffffffffffff16021790555050565b606060405160200161049990611eb3565b60405160208183030381529060405290506000600260060180549050846040516020016104c69190611f35565b6040516020818303038152906040528051906020012060001c6104e99190611f8a565b9050816002600601828154811061050357610502611fbb565b5b9060005260206000200160405160200161051e92919061216d565b6040516020818303038152906040529150600083610540576002600401610545565b600280015b9050828160000160405160200161055d9291906122b1565b6040516020818303038152906040529250600061057a8686610961565b9250505060005b815181101561061d57848360010182815481106105a1576105a0611fbb565b5b90600052602060002090600302016002018383815181106105c5576105c4611fbb565b5b6020026020010151815481106105de576105dd611fbb565b5b906000526020600020016040516020016105f99291906122b1565b604051602081830303815290604052945080806106159061231a565b915050610581565b508360405160200161062f91906123af565b604051602081830303815290604052935050505092915050565b6106516106cf565b73ffffffffffffffffffffffffffffffffffffffff163373ffffffffffffffffffffffffffffffffffffffff161461068857600080fd5b80600260010160006101000a81548173ffffffffffffffffffffffffffffffffffffffff021916908373ffffffffffffffffffffffffffffffffffffffff16021790555050565b6000600260000160009054906101000a900473ffffffffffffffffffffffffffffffffffffffff16905090565b6001805461070990611db8565b80601f016020809104026020016040519081016040528092919081815260200182805461073590611db8565b80156107825780601f1061075757610100808354040283529160200191610782565b820191906000526020600020905b81548152906001019060200180831161076557829003601f168201915b505050505081565b6107926106cf565b73ffffffffffffffffffffffffffffffffffffffff163373ffffffffffffffffffffffffffffffffffffffff16146107c957600080fd5b600082511180156107db575080518251145b6107e457600080fd5b6000846107f55760026004016107fa565b600280015b905080600101604051806060016040528086815260200185815260200184815250908060018154018082558091505060019003906000526020600020906003020160009091909190915060008201518160000190805190602001906108609291906113ff565b50602082015181600101908051906020019061087d929190611485565b50604082015181600201908051906020019061089a929190611485565b5050505050505050565b6060600080600260010160009054906101000a900473ffffffffffffffffffffffffffffffffffffffff1673ffffffffffffffffffffffffffffffffffffffff1663e4b50cb8856040518263ffffffff1660e01b815260040161090791906123e0565b608060405180830381865afa158015610924573d6000803e3d6000fd5b505050506040513d601f19601f82011682018060405250810190610948919061243a565b9350935050506109588282610488565b92505050919050565b6060806060600085905060008561097c576002600401610981565b600280015b90506000816001018054905090508067ffffffffffffffff8111156109a9576109a861180d565b5b6040519080825280602002602001820160405280156109dc57816020015b60608152602001906001900390816109c75790505b5095508067ffffffffffffffff8111156109f9576109f861180d565b5b604051908082528060200260200182016040528015610a2c57816020015b6060815260200190600190039081610a175790505b5094508067ffffffffffffffff811115610a4957610a4861180d565b5b604051908082528060200260200182016040528015610a775781602001602082028036833780820191505090505b50935060005b81811015610cd75783604051602001610a9691906124a1565b6040516020818303038152906040528051906020012093506000836001018281548110610ac657610ac5611fbb565b5b9060005260206000209060030201600101805490508560001c610ae99190611f8a565b9050836001018281548110610b0157610b00611fbb565b5b90600052602060002090600302016000018054610b1d90611db8565b80601f0160208091040260200160405190810160405280929190818152602001828054610b4990611db8565b8015610b965780601f10610b6b57610100808354040283529160200191610b96565b820191906000526020600020905b815481529060010190602001808311610b7957829003601f168201915b5050505050888381518110610bae57610bad611fbb565b5b6020026020010181905250836001018281548110610bcf57610bce611fbb565b5b90600052602060002090600302016001018181548110610bf257610bf1611fbb565b5b906000526020600020018054610c0790611db8565b80601f0160208091040260200160405190810160405280929190818152602001828054610c3390611db8565b8015610c805780601f10610c5557610100808354040283529160200191610c80565b820191906000526020600020905b815481529060010190602001808311610c6357829003601f168201915b5050505050878381518110610c9857610c97611fbb565b5b602002602001018190525080868381518110610cb757610cb6611fbb565b5b602002602001018181525050508080610ccf9061231a565b915050610a7d565b505050509250925092565b6060600080600260010160009054906101000a900473ffffffffffffffffffffffffffffffffffffffff1673ffffffffffffffffffffffffffffffffffffffff1663e4b50cb8856040518263ffffffff1660e01b8152600401610d4591906123e0565b608060405180830381865afa158015610d62573d6000803e3d6000fd5b505050506040513d601f19601f82011682018060405250810190610d86919061243a565b935093505050600081610dce576040518060400160405280600981526020017f4669736865726d616e0000000000000000000000000000000000000000000000815250610e05565b6040518060400160405280600581526020017f5768616c650000000000000000000000000000000000000000000000000000008152505b610e0e86611138565b604051602001610e1f9291906125c6565b604051602081830303815290604052905080610e43610e3e8585610488565b611280565b604051602001610e549291906126c9565b60405160208183030381529060405290508082610ea6576040518060400160405280600981526020017f4669736865726d616e0000000000000000000000000000000000000000000000815250610edd565b6040518060400160405280600581526020017f5768616c650000000000000000000000000000000000000000000000000000008152505b604051602001610eee92919061279b565b6040516020818303038152906040529050600080610f0c8585610961565b509150915060005b8251811015610fef576040518060400160405280600481526020017f4e6f6e650000000000000000000000000000000000000000000000000000000081525080519060200120828281518110610f6d57610f6c611fbb565b5b60200260200101518051906020012014610fdc5783838281518110610f9557610f94611fbb565b5b6020026020010151838381518110610fb057610faf611fbb565b5b6020026020010151604051602001610fca9392919061286d565b60405160208183030381529060405293505b8080610fe79061231a565b915050610f14565b5082604051602001611001919061290b565b604051602081830303815290604052925061101b83611280565b60405160200161102b9190612979565b60405160208183030381529060405295505050505050919050565b606080600080600260010160009054906101000a900473ffffffffffffffffffffffffffffffffffffffff1673ffffffffffffffffffffffffffffffffffffffff1663e4b50cb8866040518263ffffffff1660e01b81526004016110aa91906123e0565b608060405180830381865afa1580156110c7573d6000803e3d6000fd5b505050506040513d601f19601f820116820180604052508101906110eb919061243a565b9350935050506110fb8282610961565b5080945081955050505050915091565b6000600260010160009054906101000a900473ffffffffffffffffffffffffffffffffffffffff16905090565b606060006001905060008390505b600981111561117157600a8161115c919061299b565b905081806111699061231a565b925050611146565b60008267ffffffffffffffff81111561118d5761118c61180d565b5b6040519080825280601f01601f1916602001820160405280156111bf5781602001600182028036833780820191505090505b50905060005b8151811015611274576000600a60018385516111e191906129cc565b6111eb91906129cc565b600a6111f79190612b33565b88611202919061299b565b61120c9190611f8a565b905060308161121b9190612b8b565b60f81b83838151811061123157611230611fbb565b5b60200101907effffffffffffffffffffffffffffffffffffffffffffffffffffffffffffff1916908160001a90535050808061126c9061231a565b9150506111c5565b50809350505050919050565b60606000825114156112a3576040518060200160405280600081525090506113fa565b6000604051806060016040528060408152602001612c7360409139905060006003600285516112d29190612bc2565b6112dc919061299b565b60046112e89190612c18565b90506020816112f79190612bc2565b67ffffffffffffffff8111156113105761130f61180d565b5b6040519080825280601f01601f1916602001820160405280156113425781602001600182028036833780820191505090505b509250808352600182018485518101602086015b818310156113bd576003830192508251603f8160121c1685015160f81b8252600182019150603f81600c1c1685015160f81b8252600182019150603f8160061c1685015160f81b8252600182019150603f811685015160f81b825260018201915050611356565b6003885106600181146113d757600281146113e7576113f2565b613d3d60f01b60028303526113f2565b603d60f81b60018303525b505050505050505b919050565b82805461140b90611db8565b90600052602060002090601f01602090048101928261142d5760008555611474565b82601f1061144657805160ff1916838001178555611474565b82800160010185558215611474579182015b82811115611473578251825591602001919060010190611458565b5b50905061148191906114e5565b5090565b8280548282559060005260206000209081019282156114d4579160200282015b828111156114d35782518290805190602001906114c39291906113ff565b50916020019190600101906114a5565b5b5090506114e19190611502565b5090565b5b808211156114fe5760008160009055506001016114e6565b5090565b5b8082111561152257600081816115199190611526565b50600101611503565b5090565b50805461153290611db8565b6000825580601f106115445750611563565b601f01602090049060005260206000209081019061156291906114e5565b5b50565b600081519050919050565b600082825260208201905092915050565b60005b838110156115a0578082015181840152602081019050611585565b838111156115af576000848401525b50505050565b6000601f19601f8301169050919050565b60006115d182611566565b6115db8185611571565b93506115eb818560208601611582565b6115f4816115b5565b840191505092915050565b6000602082019050818103600083015261161981846115c6565b905092915050565b6000604051905090565b600080fd5b600080fd5b600073ffffffffffffffffffffffffffffffffffffffff82169050919050565b600061166082611635565b9050919050565b61167081611655565b811461167b57600080fd5b50565b60008135905061168d81611667565b92915050565b6000602082840312156116a9576116a861162b565b5b60006116b78482850161167e565b91505092915050565b60006116cb82611655565b9050919050565b6116db816116c0565b81146116e657600080fd5b50565b6000813590506116f8816116d2565b92915050565b6000602082840312156117145761171361162b565b5b6000611722848285016116e9565b91505092915050565b6000819050919050565b61173e8161172b565b811461174957600080fd5b50565b60008135905061175b81611735565b92915050565b60008115159050919050565b61177681611761565b811461178157600080fd5b50565b6000813590506117938161176d565b92915050565b600080604083850312156117b0576117af61162b565b5b60006117be8582860161174c565b92505060206117cf85828601611784565b9150509250929050565b6117e281611655565b82525050565b60006020820190506117fd60008301846117d9565b92915050565b600080fd5b600080fd5b7f4e487b7100000000000000000000000000000000000000000000000000000000600052604160045260246000fd5b611845826115b5565b810181811067ffffffffffffffff821117156118645761186361180d565b5b80604052505050565b6000611877611621565b9050611883828261183c565b919050565b600067ffffffffffffffff8211156118a3576118a261180d565b5b6118ac826115b5565b9050602081019050919050565b82818337600083830152505050565b60006118db6118d684611888565b61186d565b9050828152602081018484840111156118f7576118f6611808565b5b6119028482856118b9565b509392505050565b600082601f83011261191f5761191e611803565b5b813561192f8482602086016118c8565b91505092915050565b600067ffffffffffffffff8211156119535761195261180d565b5b602082029050602081019050919050565b600080fd5b600061197c61197784611938565b61186d565b9050808382526020820190506020840283018581111561199f5761199e611964565b5b835b818110156119e657803567ffffffffffffffff8111156119c4576119c3611803565b5b8086016119d1898261190a565b855260208501945050506020810190506119a1565b5050509392505050565b600082601f830112611a0557611a04611803565b5b8135611a15848260208601611969565b91505092915050565b60008060008060808587031215611a3857611a3761162b565b5b6000611a4687828801611784565b945050602085013567ffffffffffffffff811115611a6757611a66611630565b5b611a738782880161190a565b935050604085013567ffffffffffffffff811115611a9457611a93611630565b5b611aa0878288016119f0565b925050606085013567ffffffffffffffff811115611ac157611ac0611630565b5b611acd878288016119f0565b91505092959194509250565b6000819050919050565b611aec81611ad9565b8114611af757600080fd5b50565b600081359050611b0981611ae3565b92915050565b600060208284031215611b2557611b2461162b565b5b6000611b3384828501611afa565b91505092915050565b600081519050919050565b600082825260208201905092915050565b6000819050602082019050919050565b600082825260208201905092915050565b6000611b8482611566565b611b8e8185611b68565b9350611b9e818560208601611582565b611ba7816115b5565b840191505092915050565b6000611bbe8383611b79565b905092915050565b6000602082019050919050565b6000611bde82611b3c565b611be88185611b47565b935083602082028501611bfa85611b58565b8060005b85811015611c365784840389528151611c178582611bb2565b9450611c2283611bc6565b925060208a01995050600181019050611bfe565b50829750879550505050505092915050565b600081519050919050565b600082825260208201905092915050565b6000819050602082019050919050565b611c7d81611ad9565b82525050565b6000611c8f8383611c74565b60208301905092915050565b6000602082019050919050565b6000611cb382611c48565b611cbd8185611c53565b9350611cc883611c64565b8060005b83811015611cf9578151611ce08882611c83565b9750611ceb83611c9b565b925050600181019050611ccc565b5085935050505092915050565b60006060820190508181036000830152611d208186611bd3565b90508181036020830152611d348185611bd3565b90508181036040830152611d488184611ca8565b9050949350505050565b60006040820190508181036000830152611d6c8185611bd3565b90508181036020830152611d808184611bd3565b90509392505050565b7f4e487b7100000000000000000000000000000000000000000000000000000000600052602260045260246000fd5b60006002820490506001821680611dd057607f821691505b60208210811415611de457611de3611d89565b5b50919050565b600081905092915050565b7f3c73766720786d6c6e733d22687474703a2f2f7777772e77332e6f72672f323060008201527f30302f737667222076657273696f6e3d22312e3122207072657365727665417360208201527f70656374526174696f3d22784d6964594d6964206d656574222076696577426f60408201527f783d22302030203434203434223e000000000000000000000000000000000000606082015250565b6000611e9d606e83611dea565b9150611ea882611df5565b606e82019050919050565b6000611ebe82611e90565b9150819050919050565b7f636f6c6f723a0000000000000000000000000000000000000000000000000000600082015250565b6000611efe600683611dea565b9150611f0982611ec8565b600682019050919050565b6000819050919050565b611f2f611f2a8261172b565b611f14565b82525050565b6000611f4082611ef1565b9150611f4c8284611f1e565b60208201915081905092915050565b7f4e487b7100000000000000000000000000000000000000000000000000000000600052601260045260246000fd5b6000611f9582611ad9565b9150611fa083611ad9565b925082611fb057611faf611f5b565b5b828206905092915050565b7f4e487b7100000000000000000000000000000000000000000000000000000000600052603260045260246000fd5b6000611ff582611566565b611fff8185611dea565b935061200f818560208601611582565b80840191505092915050565b7f3c726563742077696474683d223130302522206865696768743d22313030252260008201527f2066696c6c3d2223000000000000000000000000000000000000000000000000602082015250565b6000612077602883611dea565b91506120828261201b565b602882019050919050565b60008190508160005260206000209050919050565b600081546120af81611db8565b6120b98186611dea565b945060018216600081146120d457600181146120e557612118565b60ff19831686528186019350612118565b6120ee8561208d565b60005b83811015612110578154818901526001820191506020810190506120f1565b838801955050505b50505092915050565b7f22202f3e00000000000000000000000000000000000000000000000000000000600082015250565b6000612157600483611dea565b915061216282612121565b600482019050919050565b60006121798285611fea565b91506121848261206a565b915061219082846120a2565b915061219b8261214a565b91508190509392505050565b7f3c696d61676520783d22362220793d2236222077696474683d2233322220686560008201527f696768743d2233322220696d6167652d72656e646572696e673d22706978656c60208201527f617465642220687265663d22646174613a696d6167652f706e673b626173653660408201527f342c000000000000000000000000000000000000000000000000000000000000606082015250565b600061224f606283611dea565b915061225a826121a7565b606282019050919050565b7f222f3e0000000000000000000000000000000000000000000000000000000000600082015250565b600061229b600383611dea565b91506122a682612265565b600382019050919050565b60006122bd8285611fea565b91506122c882612242565b91506122d482846120a2565b91506122df8261228e565b91508190509392505050565b7f4e487b7100000000000000000000000000000000000000000000000000000000600052601160045260246000fd5b600061232582611ad9565b91507fffffffffffffffffffffffffffffffffffffffffffffffffffffffffffffffff821415612358576123576122eb565b5b600182019050919050565b7f3c2f7376673e0000000000000000000000000000000000000000000000000000600082015250565b6000612399600683611dea565b91506123a482612363565b600682019050919050565b60006123bb8284611fea565b91506123c68261238c565b915081905092915050565b6123da81611ad9565b82525050565b60006020820190506123f560008301846123d1565b92915050565b60008151905061240a81611667565b92915050565b60008151905061241f81611735565b92915050565b6000815190506124348161176d565b92915050565b600080600080608085870312156124545761245361162b565b5b6000612462878288016123fb565b9450506020612473878288016123fb565b935050604061248487828801612410565b925050606061249587828801612425565b91505092959194509250565b60006124ad8284611f1e565b60208201915081905092915050565b7f7b226e616d65223a220000000000000000000000000000000000000000000000600082015250565b60006124f2600983611dea565b91506124fd826124bc565b600982019050919050565b7f2023000000000000000000000000000000000000000000000000000000000000600082015250565b600061253e600283611dea565b915061254982612508565b600282019050919050565b7f222c226465736372697074696f6e223a22536f6d65206465736372697074696f60008201527f6e20636f6e74656e742e2e2e222c000000000000000000000000000000000000602082015250565b60006125b0602e83611dea565b91506125bb82612554565b602e82019050919050565b60006125d1826124e5565b91506125dd8285611fea565b91506125e882612531565b91506125f48284611fea565b91506125ff826125a3565b91508190509392505050565b7f22696d616765223a22646174613a696d6167652f7376672b786d6c3b6261736560008201527f36342c0000000000000000000000000000000000000000000000000000000000602082015250565b6000612667602383611dea565b91506126728261260b565b602382019050919050565b7f222c2261747472696275746573223a5b00000000000000000000000000000000600082015250565b60006126b3601083611dea565b91506126be8261267d565b601082019050919050565b60006126d58285611fea565b91506126e08261265a565b91506126ec8284611fea565b91506126f7826126a6565b91508190509392505050565b7f7b2274726169745f74797065223a2254797065222c2276616c7565223a220000600082015250565b6000612739601e83611dea565b915061274482612703565b601e82019050919050565b7f227d000000000000000000000000000000000000000000000000000000000000600082015250565b6000612785600283611dea565b91506127908261274f565b600282019050919050565b60006127a78285611fea565b91506127b28261272c565b91506127be8284611fea565b91506127c982612778565b91508190509392505050565b7f2c7b2274726169745f74797065223a2200000000000000000000000000000000600082015250565b600061280b601083611dea565b9150612816826127d5565b601082019050919050565b7f222c2276616c7565223a22000000000000000000000000000000000000000000600082015250565b6000612857600b83611dea565b915061286282612821565b600b82019050919050565b60006128798286611fea565b9150612884826127fe565b91506128908285611fea565b915061289b8261284a565b91506128a78284611fea565b91506128b282612778565b9150819050949350505050565b7f5d7d000000000000000000000000000000000000000000000000000000000000600082015250565b60006128f5600283611dea565b9150612900826128bf565b600282019050919050565b60006129178284611fea565b9150612922826128e8565b915081905092915050565b7f646174613a6170706c69636174696f6e2f6a736f6e3b6261736536342c000000600082015250565b6000612963601d83611dea565b915061296e8261292d565b601d82019050919050565b600061298482612956565b91506129908284611fea565b915081905092915050565b60006129a682611ad9565b91506129b183611ad9565b9250826129c1576129c0611f5b565b5b828204905092915050565b60006129d782611ad9565b91506129e283611ad9565b9250828210156129f5576129f46122eb565b5b828203905092915050565b60008160011c9050919050565b6000808291508390505b6001851115612a5757808604811115612a3357612a326122eb565b5b6001851615612a425780820291505b8081029050612a5085612a00565b9450612a17565b94509492505050565b600082612a705760019050612b2c565b81612a7e5760009050612b2c565b8160018114612a945760028114612a9e57612acd565b6001915050612b2c565b60ff841115612ab057612aaf6122eb565b5b8360020a915084821115612ac757612ac66122eb565b5b50612b2c565b5060208310610133831016604e8410600b8410161715612b025782820a905083811115612afd57612afc6122eb565b5b612b2c565b612b0f8484846001612a0d565b92509050818404811115612b2657612b256122eb565b5b81810290505b9392505050565b6000612b3e82611ad9565b9150612b4983611ad9565b9250612b767fffffffffffffffffffffffffffffffffffffffffffffffffffffffffffffffff8484612a60565b905092915050565b600060ff82169050919050565b6000612b9682612b7e565b9150612ba183612b7e565b92508260ff03821115612bb757612bb66122eb565b5b828201905092915050565b6000612bcd82611ad9565b9150612bd883611ad9565b9250827fffffffffffffffffffffffffffffffffffffffffffffffffffffffffffffffff03821115612c0d57612c0c6122eb565b5b828201905092915050565b6000612c2382611ad9565b9150612c2e83611ad9565b9250817fffffffffffffffffffffffffffffffffffffffffffffffffffffffffffffffff0483118215151615612c6757612c666122eb565b5b82820290509291505056fe4142434445464748494a4b4c4d4e4f505152535455565758595a6162636465666768696a6b6c6d6e6f707172737475767778797a303132333435363738392b2fa2646970667358221220f1002f0c3ae82aa4d8fb429aa6c6950789387a37a3090c590a4ee97e05eec3ac64736f6c634300080a0033",
  "immutableReferences": {},
  "source": "// SPDX-License-Identifier: MIT\r\npragma solidity ^0.8.10;\r\n\r\n\r\ninterface GameInterface {\r\n\tfunction getToken(uint256 _tokenId) external view returns (address tokenOwner, address approved, bytes32 seed, bool isWhale);\r\n}\r\n\r\n\r\ncontract Metadata {\r\n\r\n\tstring public name = \"Bulls & Bears Game\";\r\n\tstring public symbol = \"G\";\r\n\r\n\tstring constant private TABLE = 'ABCDEFGHIJKLMNOPQRSTUVWXYZabcdefghijklmnopqrstuvwxyz0123456789+/';\r\n\r\n\tstruct Trait {\r\n\t\tstring trait;\r\n\t\tstring[] names;\r\n\t\tstring[] imgs;\r\n\t}\r\n\r\n\tstruct Traits {\r\n\t\tstring base;\r\n\t\tTrait[] traits;\r\n\t}\r\n\t\r\n\tstruct Info {\r\n\t\taddress owner;\r\n\t\tGameInterface wg;\r\n\t\tTraits bullTraits;\r\n\t\tTraits bearTraits;\r\n\t\tstring[] colors;\r\n\t}\r\n\tInfo private info;\r\n\t\r\n\t\r\n\tmodifier _onlyOwner() {\r\n\t\trequire(msg.sender == owner());\r\n\t\t_;\r\n\t}\r\n\r\n\r\n\tconstructor(string memory _bullBase, string memory _fishermenBase, string[] memory _colors) {\r\n\t\tinfo.owner = msg.sender;\r\n\t\tinfo.bullTraits.base = _bullBase;\r\n\t\tinfo.bearTraits.base = _fishermenBase;\r\n\t\tinfo.colors = _colors;\r\n\t}\r\n\r\n\tfunction createTrait(bool _isWhale, string memory _trait, string[] memory _names, string[] memory _imgs) external _onlyOwner {\r\n\t\trequire(_names.length > 0 && _names.length == _imgs.length);\r\n\t\tTraits storage _traits = _isWhale ? info.bullTraits : info.bearTraits;\r\n\t\t_traits.traits.push(Trait(_trait, _names, _imgs));\r\n\t}\r\n\r\n\tfunction setOwner(address _owner) external _onlyOwner {\r\n\t\tinfo.owner = _owner;\r\n\t}\r\n\r\n\tfunction setGame(GameInterface _wg) external _onlyOwner {\r\n\t\tinfo.wg = _wg;\r\n\t}\r\n\r\n\tfunction deploySetGame(GameInterface _wg) external {\r\n\t\trequire(tx.origin == owner() && GameAddress() == address(0x0));\r\n\t\tinfo.wg = _wg;\r\n\t}\r\n\r\n\r\n\tfunction GameAddress() public view returns (address) {\r\n\t\treturn address(info.wg);\r\n\t}\r\n\r\n\tfunction owner() public view returns (address) {\r\n\t\treturn info.owner;\r\n\t}\r\n\t\r\n\tfunction tokenURI(uint256 _tokenId) external view returns (string memory) {\r\n\t\t( , , bytes32 _seed, bool _isWhale) = info.wg.getToken(_tokenId);\r\n\t\tstring memory _json = string(abi.encodePacked('{\"name\":\"', _isWhale ? 'Whale' : 'Fisherman', ' #', _uint2str(_tokenId), '\",\"description\":\"Some description content...\",'));\r\n\t\t_json = string(abi.encodePacked(_json, '\"image\":\"data:image/svg+xml;base64,', _encode(bytes(getRawSVG(_seed, _isWhale))), '\",\"attributes\":['));\r\n\t\t_json = string(abi.encodePacked(_json, '{\"trait_type\":\"Type\",\"value\":\"', _isWhale ? 'Whale' : 'Fisherman', '\"}'));\r\n\t\t(string[] memory _traits, string[] memory _values, ) = getRawTraits(_seed, _isWhale);\r\n\t\tfor (uint256 i = 0; i < _traits.length; i++) {\r\n\t\t\tif (keccak256(bytes(_values[i])) != keccak256(bytes(\"None\"))) {\r\n\t\t\t\t_json = string(abi.encodePacked(_json, ',{\"trait_type\":\"', _traits[i], '\",\"value\":\"', _values[i], '\"}'));\r\n\t\t\t}\r\n\t\t}\r\n\t\t_json = string(abi.encodePacked(_json, ']}'));\r\n\t\treturn string(abi.encodePacked(\"data:application/json;base64,\", _encode(bytes(_json))));\r\n\t}\r\n\r\n\tfunction getSVG(uint256 _tokenId) public view returns (string memory) {\r\n\t\t( , , bytes32 _seed, bool _isWhale) = info.wg.getToken(_tokenId);\r\n\t\treturn getRawSVG(_seed, _isWhale);\r\n\t}\r\n\r\n\tfunction getRawSVG(bytes32 _seed, bool _isWhale) public view returns (string memory svg) {\r\n\t\tsvg = string(abi.encodePacked('<svg xmlns=\"http://www.w3.org/2000/svg\" version=\"1.1\" preserveAspectRatio=\"xMidYMid meet\" viewBox=\"0 0 44 44\">'));\r\n\t\tuint256 _colorIndex = uint256(keccak256(abi.encodePacked('color:', _seed))) % info.colors.length;\r\n\t\tsvg = string(abi.encodePacked(svg, '<rect width=\"100%\" height=\"100%\" fill=\"#', info.colors[_colorIndex], '\" />'));\r\n\t\tTraits storage _traits = _isWhale ? info.bullTraits : info.bearTraits;\r\n\t\tsvg = string(abi.encodePacked(svg, '<image x=\"6\" y=\"6\" width=\"32\" height=\"32\" image-rendering=\"pixelated\" href=\"data:image/png;base64,', _traits.base, '\"/>'));\r\n\t\t( , , uint256[] memory _indexes) = getRawTraits(_seed, _isWhale);\r\n\t\tfor (uint256 i = 0; i < _indexes.length; i++) {\r\n\t\t\tsvg = string(abi.encodePacked(svg, '<image x=\"6\" y=\"6\" width=\"32\" height=\"32\" image-rendering=\"pixelated\" href=\"data:image/png;base64,', _traits.traits[i].imgs[_indexes[i]], '\"/>'));\r\n\t\t}\r\n\t\tsvg = string(abi.encodePacked(svg, '</svg>'));\r\n\t}\r\n\r\n\tfunction getTraits(uint256 _tokenId) public view returns (string[] memory traits, string[] memory values) {\r\n\t\t( , , bytes32 _seed, bool _isWhale) = info.wg.getToken(_tokenId);\r\n\t\t(traits, values, ) = getRawTraits(_seed, _isWhale);\r\n\t}\r\n\r\n\tfunction getRawTraits(bytes32 _seed, bool _isWhale) public view returns (string[] memory traits, string[] memory values, uint256[] memory indexes) {\r\n\t\tbytes32 _last = _seed;\r\n\t\tTraits storage _traits = _isWhale ? info.bullTraits : info.bearTraits;\r\n\t\tuint256 _length = _traits.traits.length;\r\n\t\ttraits = new string[](_length);\r\n\t\tvalues = new string[](_length);\r\n\t\tindexes = new uint256[](_length);\r\n\t\tfor (uint256 i = 0; i < _length; i++) {\r\n\t\t\t_last = keccak256(abi.encodePacked(_last));\r\n\t\t\tuint256 _index = uint256(_last) % _traits.traits[i].names.length;\r\n\t\t\ttraits[i] = _traits.traits[i].trait;\r\n\t\t\tvalues[i] = _traits.traits[i].names[_index];\r\n\t\t\tindexes[i] = _index;\r\n\t\t}\r\n\t}\r\n\r\n\r\n\tfunction _uint2str(uint256 _value) internal pure returns (string memory) {\r\n\t\tuint256 _digits = 1;\r\n\t\tuint256 _n = _value;\r\n\t\twhile (_n > 9) {\r\n\t\t\t_n /= 10;\r\n\t\t\t_digits++;\r\n\t\t}\r\n\t\tbytes memory _out = new bytes(_digits);\r\n\t\tfor (uint256 i = 0; i < _out.length; i++) {\r\n\t\t\tuint256 _dec = (_value / (10**(_out.length - i - 1))) % 10;\r\n\t\t\t_out[i] = bytes1(uint8(_dec) + 48);\r\n\t\t}\r\n\t\treturn string(_out);\r\n\t}\r\n\t\r\n\tfunction _encode(bytes memory _data) internal pure returns (string memory result) {\r\n\t\tif (_data.length == 0) return '';\r\n\t\tstring memory _table = TABLE;\r\n\t\tuint256 _encodedLen = 4 * ((_data.length + 2) / 3);\r\n\t\tresult = new string(_encodedLen + 32);\r\n\r\n\t\tassembly {\r\n\t\t\tmstore(result, _encodedLen)\r\n\t\t\tlet tablePtr := add(_table, 1)\r\n\t\t\tlet dataPtr := _data\r\n\t\t\tlet endPtr := add(dataPtr, mload(_data))\r\n\t\t\tlet resultPtr := add(result, 32)\r\n\r\n\t\t\tfor {} lt(dataPtr, endPtr) {}\r\n\t\t\t{\r\n\t\t\t\tdataPtr := add(dataPtr, 3)\r\n\t\t\t\tlet input := mload(dataPtr)\r\n\t\t\t\tmstore(resultPtr, shl(248, mload(add(tablePtr, and(shr(18, input), 0x3F)))))\r\n\t\t\t\tresultPtr := add(resultPtr, 1)\r\n\t\t\t\tmstore(resultPtr, shl(248, mload(add(tablePtr, and(shr(12, input), 0x3F)))))\r\n\t\t\t\tresultPtr := add(resultPtr, 1)\r\n\t\t\t\tmstore(resultPtr, shl(248, mload(add(tablePtr, and(shr( 6, input), 0x3F)))))\r\n\t\t\t\tresultPtr := add(resultPtr, 1)\r\n\t\t\t\tmstore(resultPtr, shl(248, mload(add(tablePtr, and(        input,  0x3F)))))\r\n\t\t\t\tresultPtr := add(resultPtr, 1)\r\n\t\t\t}\r\n\t\t\tswitch mod(mload(_data), 3)\r\n\t\t\tcase 1 { mstore(sub(resultPtr, 2), shl(240, 0x3d3d)) }\r\n\t\t\tcase 2 { mstore(sub(resultPtr, 1), shl(248, 0x3d)) }\r\n\t\t}\r\n\t\treturn result;\r\n\t}\r\n}",
  "sourcePath": "C:\\Users\\Faouz\\OneDrive\\Desktop\\gamennew\\nftGame\\GameLatestVerison\\Truffle\\contracts\\Metadata.sol",
  "compiler": {
    "name": "solc",
    "version": "0.8.10+commit.fc410830.Emscripten.clang"
  },
  "schemaVersion": "3.4.3",
  "updatedAt": "2021-12-07T13:36:48.387Z",
  "networkType": "ethereum",
  "devdoc": {
    "kind": "dev",
    "methods": {},
    "version": 1
  },
  "userdoc": {
    "kind": "user",
    "methods": {},
    "version": 1
  }
}