{
  "contractName": "Staking",
  "abi": [
    {
      "inputs": [
        {
          "internalType": "contract Game",
          "name": "_g",
          "type": "address"
        },
        {
          "internalType": "contract Pair",
          "name": "_pair",
          "type": "address"
        }
      ],
      "stateMutability": "nonpayable",
      "type": "constructor"
    },
    {
      "anonymous": false,
      "inputs": [
        {
          "indexed": true,
          "internalType": "address",
          "name": "user",
          "type": "address"
        },
        {
          "indexed": false,
          "internalType": "uint256",
          "name": "amount",
          "type": "uint256"
        }
      ],
      "name": "Claim",
      "type": "event"
    },
    {
      "anonymous": false,
      "inputs": [
        {
          "indexed": true,
          "internalType": "address",
          "name": "user",
          "type": "address"
        },
        {
          "indexed": false,
          "internalType": "uint256",
          "name": "amount",
          "type": "uint256"
        }
      ],
      "name": "Deposit",
      "type": "event"
    },
    {
      "anonymous": false,
      "inputs": [
        {
          "indexed": false,
          "internalType": "uint256",
          "name": "amount",
          "type": "uint256"
        }
      ],
      "name": "Reward",
      "type": "event"
    },
    {
      "anonymous": false,
      "inputs": [
        {
          "indexed": true,
          "internalType": "address",
          "name": "user",
          "type": "address"
        },
        {
          "indexed": false,
          "internalType": "uint256",
          "name": "amount",
          "type": "uint256"
        }
      ],
      "name": "Withdraw",
      "type": "event"
    },
    {
      "inputs": [
        {
          "internalType": "uint256",
          "name": "_amount",
          "type": "uint256"
        }
      ],
      "name": "disburse",
      "outputs": [],
      "stateMutability": "nonpayable",
      "type": "function"
    },
    {
      "inputs": [
        {
          "internalType": "uint256",
          "name": "_amount",
          "type": "uint256"
        }
      ],
      "name": "deposit",
      "outputs": [],
      "stateMutability": "nonpayable",
      "type": "function"
    },
    {
      "inputs": [
        {
          "internalType": "uint256",
          "name": "_amount",
          "type": "uint256"
        },
        {
          "internalType": "address",
          "name": "_user",
          "type": "address"
        }
      ],
      "name": "depositFor",
      "outputs": [],
      "stateMutability": "nonpayable",
      "type": "function"
    },
    {
      "inputs": [],
      "name": "withdrawAll",
      "outputs": [],
      "stateMutability": "nonpayable",
      "type": "function"
    },
    {
      "inputs": [
        {
          "internalType": "uint256",
          "name": "_amount",
          "type": "uint256"
        }
      ],
      "name": "withdraw",
      "outputs": [],
      "stateMutability": "nonpayable",
      "type": "function"
    },
    {
      "inputs": [],
      "name": "claim",
      "outputs": [],
      "stateMutability": "nonpayable",
      "type": "function"
    },
    {
      "inputs": [],
      "name": "totalDeposited",
      "outputs": [
        {
          "internalType": "uint256",
          "name": "",
          "type": "uint256"
        }
      ],
      "stateMutability": "view",
      "type": "function",
      "constant": true
    },
    {
      "inputs": [
        {
          "internalType": "address",
          "name": "_user",
          "type": "address"
        }
      ],
      "name": "depositedOf",
      "outputs": [
        {
          "internalType": "uint256",
          "name": "",
          "type": "uint256"
        }
      ],
      "stateMutability": "view",
      "type": "function",
      "constant": true
    },
    {
      "inputs": [
        {
          "internalType": "address",
          "name": "_user",
          "type": "address"
        }
      ],
      "name": "rewardsOf",
      "outputs": [
        {
          "internalType": "uint256",
          "name": "",
          "type": "uint256"
        }
      ],
      "stateMutability": "view",
      "type": "function",
      "constant": true
    },
    {
      "inputs": [
        {
          "internalType": "address",
          "name": "_user",
          "type": "address"
        }
      ],
      "name": "allInfoFor",
      "outputs": [
        {
          "internalType": "uint256",
          "name": "totalLPDeposited",
          "type": "uint256"
        },
        {
          "internalType": "uint256",
          "name": "totalLPTokens",
          "type": "uint256"
        },
        {
          "internalType": "uint256",
          "name": "wethReserve",
          "type": "uint256"
        },
        {
          "internalType": "uint256",
          "name": "wsdmReserve",
          "type": "uint256"
        },
        {
          "internalType": "uint256",
          "name": "userBalance",
          "type": "uint256"
        },
        {
          "internalType": "uint256",
          "name": "userAllowance",
          "type": "uint256"
        },
        {
          "internalType": "uint256",
          "name": "userDeposited",
          "type": "uint256"
        },
        {
          "internalType": "uint256",
          "name": "userRewards",
          "type": "uint256"
        }
      ],
      "stateMutability": "view",
      "type": "function",
      "constant": true
    }
  ],
  "bytecode": "0x60806040523480156200001157600080fd5b50604051620016ef380380620016ef8339818101604052810190620000379190620001e2565b81600060040160006101000a81548173ffffffffffffffffffffffffffffffffffffffff021916908373ffffffffffffffffffffffffffffffffffffffff16021790555033600060050160006101000a81548173ffffffffffffffffffffffffffffffffffffffff021916908373ffffffffffffffffffffffffffffffffffffffff16021790555080600060060160006101000a81548173ffffffffffffffffffffffffffffffffffffffff021916908373ffffffffffffffffffffffffffffffffffffffff160217905550505062000229565b600080fd5b600073ffffffffffffffffffffffffffffffffffffffff82169050919050565b60006200013d8262000110565b9050919050565b6000620001518262000130565b9050919050565b620001638162000144565b81146200016f57600080fd5b50565b600081519050620001838162000158565b92915050565b6000620001968262000110565b9050919050565b6000620001aa8262000189565b9050919050565b620001bc816200019d565b8114620001c857600080fd5b50565b600081519050620001dc81620001b1565b92915050565b60008060408385031215620001fc57620001fb6200010b565b5b60006200020c8582860162000172565b92505060206200021f85828601620001cb565b9150509250929050565b6114b680620002396000396000f3fe608060405234801561001057600080fd5b506004361061009e5760003560e01c80635c99d8cc116100665780635c99d8cc1461014c578063853828b61461017c578063b6b55f2514610186578063bd77ac2c146101a2578063ff50abdc146101be5761009e565b80632e1a7d4d146100a357806336efd16f146100bf578063479ba7ae146100db5780634e71d92d1461010b57806357f6b81214610115575b600080fd5b6100bd60048036038101906100b89190610e3f565b6101dc565b005b6100d960048036038101906100d49190610eca565b6103dd565b005b6100f560048036038101906100f09190610f0a565b6105cd565b6040516101029190610f46565b60405180910390f35b610113610653565b005b61012f600480360381019061012a9190610f0a565b6107d7565b604051610143989796959493929190610f61565b60405180910390f35b61016660048036038101906101619190610f0a565b610a0a565b6040516101739190610f46565b60405180910390f35b610184610a58565b005b6101a0600480360381019061019b9190610e3f565b610a7b565b005b6101bc60048036038101906101b79190610e3f565b610a88565b005b6101c6610b44565b6040516101d39190610f46565b60405180910390f35b6000811180156101f457506101f033610a0a565b8111155b6101fd57600080fd5b610205610b50565b80600080016000828254610219919061100e565b9250508190555080600060030160003373ffffffffffffffffffffffffffffffffffffffff1673ffffffffffffffffffffffffffffffffffffffff1681526020019081526020016000206000016000828254610275919061100e565b925050819055506000600101548161028d9190611042565b600060030160003373ffffffffffffffffffffffffffffffffffffffff1673ffffffffffffffffffffffffffffffffffffffff16815260200190815260200160002060010160008282546102e191906110a6565b92505081905550600060060160009054906101000a900473ffffffffffffffffffffffffffffffffffffffff1673ffffffffffffffffffffffffffffffffffffffff1663a9059cbb33836040518363ffffffff1660e01b8152600401610348929190611149565b6020604051808303816000875af1158015610367573d6000803e3d6000fd5b505050506040513d601f19601f8201168201806040525081019061038b91906111aa565b503373ffffffffffffffffffffffffffffffffffffffff167f884edad9ce6fa2440d8a54cc123490eb96d2768479d49ff9c7366125a9424364826040516103d29190610f46565b60405180910390a250565b600082116103ea57600080fd5b6103f2610b50565b600060060160009054906101000a900473ffffffffffffffffffffffffffffffffffffffff1673ffffffffffffffffffffffffffffffffffffffff166323b872dd3330856040518463ffffffff1660e01b8152600401610454939291906111d7565b6020604051808303816000875af1158015610473573d6000803e3d6000fd5b505050506040513d601f19601f8201168201806040525081019061049791906111aa565b50816000800160008282546104ac919061120e565b9250508190555081600060030160008373ffffffffffffffffffffffffffffffffffffffff1673ffffffffffffffffffffffffffffffffffffffff1681526020019081526020016000206000016000828254610508919061120e565b92505081905550600060010154826105209190611042565b600060030160008373ffffffffffffffffffffffffffffffffffffffff1673ffffffffffffffffffffffffffffffffffffffff16815260200190815260200160002060010160008282546105749190611264565b925050819055508073ffffffffffffffffffffffffffffffffffffffff167fe1fffcc4923d04b559f4d29a8bfc6cda04eb5b0d3c460751c2402c5c5cc9109c836040516105c19190610f46565b60405180910390a25050565b600068010000000000000000600060030160008473ffffffffffffffffffffffffffffffffffffffff1673ffffffffffffffffffffffffffffffffffffffff1681526020019081526020016000206001015461062884610a0a565b6000600101546106389190611042565b61064291906110a6565b61064c9190611327565b9050919050565b61065b610b50565b6000610666336105cd565b905060008111156107d45768010000000000000000816106869190611042565b600060030160003373ffffffffffffffffffffffffffffffffffffffff1673ffffffffffffffffffffffffffffffffffffffff16815260200190815260200160002060010160008282546106da9190611264565b92505081905550600060050160009054906101000a900473ffffffffffffffffffffffffffffffffffffffff1673ffffffffffffffffffffffffffffffffffffffff1663a9059cbb33836040518363ffffffff1660e01b8152600401610741929190611149565b6020604051808303816000875af1158015610760573d6000803e3d6000fd5b505050506040513d601f19601f8201168201806040525081019061078491906111aa565b503373ffffffffffffffffffffffffffffffffffffffff167f47cee97cb7acd717b3c0aa1435d004cd5b3c8c57d70dbceb4e4458bbd60e39d4826040516107cb9190610f46565b60405180910390a25b50565b6000806000806000806000806107eb610b44565b9750600060050160009054906101000a900473ffffffffffffffffffffffffffffffffffffffff1673ffffffffffffffffffffffffffffffffffffffff166357f6b812306040518263ffffffff1660e01b815260040161084b9190611358565b60e060405180830381865afa158015610868573d6000803e3d6000fd5b505050506040513d601f19601f8201168201806040525081019061088c9190611388565b90919293949550909150905050809750819850829950505050600060060160009054906101000a900473ffffffffffffffffffffffffffffffffffffffff1673ffffffffffffffffffffffffffffffffffffffff166370a082318a6040518263ffffffff1660e01b81526004016109039190611358565b602060405180830381865afa158015610920573d6000803e3d6000fd5b505050506040513d601f19601f82011682018060405250810190610944919061142a565b9350600060060160009054906101000a900473ffffffffffffffffffffffffffffffffffffffff1673ffffffffffffffffffffffffffffffffffffffff1663dd62ed3e8a306040518363ffffffff1660e01b81526004016109a6929190611457565b602060405180830381865afa1580156109c3573d6000803e3d6000fd5b505050506040513d601f19601f820116820180604052508101906109e7919061142a565b92506109f289610a0a565b91506109fd896105cd565b9050919395975091939597565b60008060030160008373ffffffffffffffffffffffffffffffffffffffff1673ffffffffffffffffffffffffffffffffffffffff168152602001908152602001600020600001549050919050565b6000610a6333610a0a565b90506000811115610a7857610a77816101dc565b5b50565b610a8581336103dd565b50565b6000811115610b4157600060050160009054906101000a900473ffffffffffffffffffffffffffffffffffffffff1673ffffffffffffffffffffffffffffffffffffffff166323b872dd3330846040518463ffffffff1660e01b8152600401610af3939291906111d7565b6020604051808303816000875af1158015610b12573d6000803e3d6000fd5b505050506040513d601f19601f82011682018060405250810190610b3691906111aa565b50610b4081610d32565b5b50565b60008060000154905090565b600030905060008060050160009054906101000a900473ffffffffffffffffffffffffffffffffffffffff1673ffffffffffffffffffffffffffffffffffffffff166370a08231836040518263ffffffff1660e01b8152600401610bb49190611358565b602060405180830381865afa158015610bd1573d6000803e3d6000fd5b505050506040513d601f19601f82011682018060405250810190610bf5919061142a565b9050600060040160009054906101000a900473ffffffffffffffffffffffffffffffffffffffff1673ffffffffffffffffffffffffffffffffffffffff16634e71d92d6040518163ffffffff1660e01b8152600401600060405180830381600087803b158015610c6457600080fd5b505af1158015610c78573d6000803e3d6000fd5b50505050610d2e81600060050160009054906101000a900473ffffffffffffffffffffffffffffffffffffffff1673ffffffffffffffffffffffffffffffffffffffff166370a08231856040518263ffffffff1660e01b8152600401610cde9190611358565b602060405180830381865afa158015610cfb573d6000803e3d6000fd5b505050506040513d601f19601f82011682018060405250810190610d1f919061142a565b610d29919061100e565b610d32565b5050565b6000811115610e01576000610d45610b44565b1415610d6c578060006002016000828254610d60919061120e565b92505081905550610dc9565b610d74610b44565b6801000000000000000060006002015483610d8f919061120e565b610d999190611042565b610da39190611327565b60006001016000828254610db7919061120e565b92505081905550600080600201819055505b7f3ac0594a85a20354f9dc74f33728416d19ce00d04a406c108cc2dcf2cecea13481604051610df89190610f46565b60405180910390a15b50565b600080fd5b6000819050919050565b610e1c81610e09565b8114610e2757600080fd5b50565b600081359050610e3981610e13565b92915050565b600060208284031215610e5557610e54610e04565b5b6000610e6384828501610e2a565b91505092915050565b600073ffffffffffffffffffffffffffffffffffffffff82169050919050565b6000610e9782610e6c565b9050919050565b610ea781610e8c565b8114610eb257600080fd5b50565b600081359050610ec481610e9e565b92915050565b60008060408385031215610ee157610ee0610e04565b5b6000610eef85828601610e2a565b9250506020610f0085828601610eb5565b9150509250929050565b600060208284031215610f2057610f1f610e04565b5b6000610f2e84828501610eb5565b91505092915050565b610f4081610e09565b82525050565b6000602082019050610f5b6000830184610f37565b92915050565b600061010082019050610f77600083018b610f37565b610f84602083018a610f37565b610f916040830189610f37565b610f9e6060830188610f37565b610fab6080830187610f37565b610fb860a0830186610f37565b610fc560c0830185610f37565b610fd260e0830184610f37565b9998505050505050505050565b7f4e487b7100000000000000000000000000000000000000000000000000000000600052601160045260246000fd5b600061101982610e09565b915061102483610e09565b92508282101561103757611036610fdf565b5b828203905092915050565b600061104d82610e09565b915061105883610e09565b9250817fffffffffffffffffffffffffffffffffffffffffffffffffffffffffffffffff048311821515161561109157611090610fdf565b5b828202905092915050565b6000819050919050565b60006110b18261109c565b91506110bc8361109c565b9250827f8000000000000000000000000000000000000000000000000000000000000000018212600084121516156110f7576110f6610fdf565b5b827f7fffffffffffffffffffffffffffffffffffffffffffffffffffffffffffffff01821360008412161561112f5761112e610fdf565b5b828203905092915050565b61114381610e8c565b82525050565b600060408201905061115e600083018561113a565b61116b6020830184610f37565b9392505050565b60008115159050919050565b61118781611172565b811461119257600080fd5b50565b6000815190506111a48161117e565b92915050565b6000602082840312156111c0576111bf610e04565b5b60006111ce84828501611195565b91505092915050565b60006060820190506111ec600083018661113a565b6111f9602083018561113a565b6112066040830184610f37565b949350505050565b600061121982610e09565b915061122483610e09565b9250827fffffffffffffffffffffffffffffffffffffffffffffffffffffffffffffffff0382111561125957611258610fdf565b5b828201905092915050565b600061126f8261109c565b915061127a8361109c565b9250817f7fffffffffffffffffffffffffffffffffffffffffffffffffffffffffffffff038313600083121516156112b5576112b4610fdf565b5b817f80000000000000000000000000000000000000000000000000000000000000000383126000831216156112ed576112ec610fdf565b5b828201905092915050565b7f4e487b7100000000000000000000000000000000000000000000000000000000600052601260045260246000fd5b600061133282610e09565b915061133d83610e09565b92508261134d5761134c6112f8565b5b828204905092915050565b600060208201905061136d600083018461113a565b92915050565b60008151905061138281610e13565b92915050565b600080600080600080600060e0888a0312156113a7576113a6610e04565b5b60006113b58a828b01611373565b97505060206113c68a828b01611373565b96505060406113d78a828b01611373565b95505060606113e88a828b01611373565b94505060806113f98a828b01611373565b93505060a061140a8a828b01611373565b92505060c061141b8a828b01611373565b91505092959891949750929550565b6000602082840312156114405761143f610e04565b5b600061144e84828501611373565b91505092915050565b600060408201905061146c600083018561113a565b611479602083018461113a565b939250505056fea2646970667358221220d3bd5621f3e0490c41114f41929795fc12f466bd1ca6bf82f8e74854b3f9ad8f64736f6c634300080a0033",
  "immutableReferences": {},
  "source": "// SPDX-License-Identifier: MIT\r\n\r\npragma solidity ^0.8.10;\r\n\r\nimport \"./Game.sol\";\r\nimport \"./WSDM.sol\";\r\n\r\ncontract Staking {\r\n\r\n\tuint256 constant private FLOAT_SCALAR = 2**64;\r\n\r\n\tstruct User {\r\n\t\tuint256 deposited;\r\n\t\tint256 scaledPayout;\r\n\t}\r\n\r\n\tstruct Info {\r\n\t\tuint256 totalDeposited;\r\n\t\tuint256 scaledRewardsPerToken;\r\n\t\tuint256 pendingRewards;\r\n\t\tmapping(address => User) users;\r\n\t\tGame g;\r\n\t\tWSDM wsdm;\r\n\t\tPair pair;\r\n\t}\r\n\tInfo private info;\r\n\r\n\r\n\tevent Deposit(address indexed user, uint256 amount);\r\n\tevent Withdraw(address indexed user, uint256 amount);\r\n\tevent Claim(address indexed user, uint256 amount);\r\n\tevent Reward(uint256 amount);\r\n\r\n\r\n\tconstructor(Game _g, Pair _pair) {\r\n\t\tinfo.g = _g;\r\n\t\tinfo.wsdm = WSDM(msg.sender);\r\n\t\tinfo.pair = _pair;\r\n\t}\r\n\r\n\tfunction disburse(uint256 _amount) external {\r\n\t\tif (_amount > 0) {\r\n\t\t\tinfo.wsdm.transferFrom(msg.sender, address(this), _amount);\r\n\t\t\t_disburse(_amount);\r\n\t\t}\r\n\t}\r\n\r\n\tfunction deposit(uint256 _amount) external {\r\n\t\tdepositFor(_amount, msg.sender);\r\n\t}\r\n\r\n\tfunction depositFor(uint256 _amount, address _user) public {\r\n\t\trequire(_amount > 0);\r\n\t\t_update();\r\n\t\tinfo.pair.transferFrom(msg.sender, address(this), _amount);\r\n\t\tinfo.totalDeposited += _amount;\r\n\t\tinfo.users[_user].deposited += _amount;\r\n\t\tinfo.users[_user].scaledPayout += int256(_amount * info.scaledRewardsPerToken);\r\n\t\temit Deposit(_user, _amount);\r\n\t}\r\n\r\n\tfunction withdrawAll() external {\r\n\t\tuint256 _deposited = depositedOf(msg.sender);\r\n\t\tif (_deposited > 0) {\r\n\t\t\twithdraw(_deposited);\r\n\t\t}\r\n\t}\r\n\r\n\tfunction withdraw(uint256 _amount) public {\r\n\t\trequire(_amount > 0 && _amount <= depositedOf(msg.sender));\r\n\t\t_update();\r\n\t\tinfo.totalDeposited -= _amount;\r\n\t\tinfo.users[msg.sender].deposited -= _amount;\r\n\t\tinfo.users[msg.sender].scaledPayout -= int256(_amount * info.scaledRewardsPerToken);\r\n\t\tinfo.pair.transfer(msg.sender, _amount);\r\n\t\temit Withdraw(msg.sender, _amount);\r\n\t}\r\n\r\n\tfunction claim() external {\r\n\t\t_update();\r\n\t\tuint256 _rewards = rewardsOf(msg.sender);\r\n\t\tif (_rewards > 0) {\r\n\t\t\tinfo.users[msg.sender].scaledPayout += int256(_rewards * FLOAT_SCALAR);\r\n\t\t\tinfo.wsdm.transfer(msg.sender, _rewards);\r\n\t\t\temit Claim(msg.sender, _rewards);\r\n\t\t}\r\n\t}\r\n\r\n\t\r\n\tfunction totalDeposited() public view returns (uint256) {\r\n\t\treturn info.totalDeposited;\r\n\t}\r\n\r\n\tfunction depositedOf(address _user) public view returns (uint256) {\r\n\t\treturn info.users[_user].deposited;\r\n\t}\r\n\t\r\n\tfunction rewardsOf(address _user) public view returns (uint256) {\r\n\t\treturn uint256(int256(info.scaledRewardsPerToken * depositedOf(_user)) - info.users[_user].scaledPayout) / FLOAT_SCALAR;\r\n\t}\r\n\r\n\tfunction allInfoFor(address _user) external view returns (uint256 totalLPDeposited, uint256 totalLPTokens, uint256 wethReserve, uint256 wsdmReserve, uint256 userBalance, uint256 userAllowance, uint256 userDeposited, uint256 userRewards) {\r\n\t\ttotalLPDeposited = totalDeposited();\r\n\t\t( , totalLPTokens, wethReserve, wsdmReserve, , , ) = info.wsdm.allInfoFor(address(this));\r\n\t\tuserBalance = info.pair.balanceOf(_user);\r\n\t\tuserAllowance = info.pair.allowance(_user, address(this));\r\n\t\tuserDeposited = depositedOf(_user);\r\n\t\tuserRewards = rewardsOf(_user);\r\n\t}\r\n\r\n\tfunction _update() internal {\r\n\t\taddress _this = address(this);\r\n\t\tuint256 _balanceBefore = info.wsdm.balanceOf(_this);\r\n\t\tinfo.g.claim();\r\n\t\t_disburse(info.wsdm.balanceOf(_this) - _balanceBefore);\r\n\t}\r\n\r\n\tfunction _disburse(uint256 _amount) internal {\r\n\t\tif (_amount > 0) {\r\n\t\t\tif (totalDeposited() == 0) {\r\n\t\t\t\tinfo.pendingRewards += _amount;\r\n\t\t\t} else {\r\n\t\t\t\tinfo.scaledRewardsPerToken += (_amount + info.pendingRewards) * FLOAT_SCALAR / totalDeposited();\r\n\t\t\t\tinfo.pendingRewards = 0;\r\n\t\t\t}\r\n\t\t\temit Reward(_amount);\r\n\t\t}\r\n\t}\r\n}",
  "sourcePath": "C:\\Users\\Faouz\\OneDrive\\Desktop\\gamennew\\nftGame\\GameLatestVerison\\Truffle\\contracts\\Staking.sol",
  "compiler": {
    "name": "solc",
    "version": "0.8.10+commit.fc410830.Emscripten.clang"
  },
  "schemaVersion": "3.4.3",
  "updatedAt": "2021-12-07T13:36:48.486Z",
  "networkType": "ethereum",
  "devdoc": {
    "kind": "dev",
    "methods": {},
    "version": 1
  },
  "userdoc": {
    "kind": "user",
    "methods": {},
    "version": 1
  }
}