{
  "contractName": "WSDM",
  "abi": [
    {
      "inputs": [],
      "stateMutability": "nonpayable",
      "type": "constructor"
    },
    {
      "anonymous": false,
      "inputs": [
        {
          "indexed": true,
          "internalType": "address",
          "name": "owner",
          "type": "address"
        },
        {
          "indexed": true,
          "internalType": "address",
          "name": "spender",
          "type": "address"
        },
        {
          "indexed": false,
          "internalType": "uint256",
          "name": "tokens",
          "type": "uint256"
        }
      ],
      "name": "Approval",
      "type": "event"
    },
    {
      "anonymous": false,
      "inputs": [
        {
          "indexed": true,
          "internalType": "address",
          "name": "from",
          "type": "address"
        },
        {
          "indexed": true,
          "internalType": "address",
          "name": "to",
          "type": "address"
        },
        {
          "indexed": false,
          "internalType": "uint256",
          "name": "tokens",
          "type": "uint256"
        }
      ],
      "name": "Transfer",
      "type": "event"
    },
    {
      "anonymous": false,
      "inputs": [
        {
          "indexed": true,
          "internalType": "address",
          "name": "user",
          "type": "address"
        },
        {
          "indexed": false,
          "internalType": "bool",
          "name": "fromWhitelisted",
          "type": "bool"
        },
        {
          "indexed": false,
          "internalType": "bool",
          "name": "toWhitelisted",
          "type": "bool"
        }
      ],
      "name": "WhitelistUpdated",
      "type": "event"
    },
    {
      "inputs": [],
      "name": "decimals",
      "outputs": [
        {
          "internalType": "uint8",
          "name": "",
          "type": "uint8"
        }
      ],
      "stateMutability": "view",
      "type": "function",
      "constant": true
    },
    {
      "inputs": [],
      "name": "name",
      "outputs": [
        {
          "internalType": "string",
          "name": "",
          "type": "string"
        }
      ],
      "stateMutability": "view",
      "type": "function",
      "constant": true
    },
    {
      "inputs": [],
      "name": "symbol",
      "outputs": [
        {
          "internalType": "string",
          "name": "",
          "type": "string"
        }
      ],
      "stateMutability": "view",
      "type": "function",
      "constant": true
    },
    {
      "inputs": [
        {
          "internalType": "address",
          "name": "_owner",
          "type": "address"
        }
      ],
      "name": "setOwner",
      "outputs": [],
      "stateMutability": "nonpayable",
      "type": "function"
    },
    {
      "inputs": [
        {
          "internalType": "address",
          "name": "_address",
          "type": "address"
        },
        {
          "internalType": "bool",
          "name": "_fromWhitelisted",
          "type": "bool"
        },
        {
          "internalType": "bool",
          "name": "_toWhitelisted",
          "type": "bool"
        }
      ],
      "name": "setWhitelisted",
      "outputs": [],
      "stateMutability": "nonpayable",
      "type": "function"
    },
    {
      "inputs": [
        {
          "internalType": "contract Game",
          "name": "_g",
          "type": "address"
        }
      ],
      "name": "deploySetGame",
      "outputs": [],
      "stateMutability": "nonpayable",
      "type": "function"
    },
    {
      "inputs": [
        {
          "internalType": "address",
          "name": "_receiver",
          "type": "address"
        },
        {
          "internalType": "uint256",
          "name": "_tokens",
          "type": "uint256"
        }
      ],
      "name": "mint",
      "outputs": [],
      "stateMutability": "nonpayable",
      "type": "function"
    },
    {
      "inputs": [
        {
          "internalType": "uint256",
          "name": "_tokens",
          "type": "uint256"
        }
      ],
      "name": "burn",
      "outputs": [],
      "stateMutability": "nonpayable",
      "type": "function"
    },
    {
      "inputs": [
        {
          "internalType": "address",
          "name": "_to",
          "type": "address"
        },
        {
          "internalType": "uint256",
          "name": "_tokens",
          "type": "uint256"
        }
      ],
      "name": "transfer",
      "outputs": [
        {
          "internalType": "bool",
          "name": "",
          "type": "bool"
        }
      ],
      "stateMutability": "nonpayable",
      "type": "function"
    },
    {
      "inputs": [
        {
          "internalType": "address",
          "name": "_spender",
          "type": "address"
        },
        {
          "internalType": "uint256",
          "name": "_tokens",
          "type": "uint256"
        }
      ],
      "name": "approve",
      "outputs": [
        {
          "internalType": "bool",
          "name": "",
          "type": "bool"
        }
      ],
      "stateMutability": "nonpayable",
      "type": "function"
    },
    {
      "inputs": [
        {
          "internalType": "address",
          "name": "_from",
          "type": "address"
        },
        {
          "internalType": "address",
          "name": "_to",
          "type": "address"
        },
        {
          "internalType": "uint256",
          "name": "_tokens",
          "type": "uint256"
        }
      ],
      "name": "transferFrom",
      "outputs": [
        {
          "internalType": "bool",
          "name": "",
          "type": "bool"
        }
      ],
      "stateMutability": "nonpayable",
      "type": "function"
    },
    {
      "inputs": [
        {
          "internalType": "address",
          "name": "_to",
          "type": "address"
        },
        {
          "internalType": "uint256",
          "name": "_tokens",
          "type": "uint256"
        },
        {
          "internalType": "bytes",
          "name": "_data",
          "type": "bytes"
        }
      ],
      "name": "transferAndCall",
      "outputs": [
        {
          "internalType": "bool",
          "name": "",
          "type": "bool"
        }
      ],
      "stateMutability": "nonpayable",
      "type": "function"
    },
    {
      "inputs": [],
      "name": "bullsGameAddress",
      "outputs": [
        {
          "internalType": "address",
          "name": "",
          "type": "address"
        }
      ],
      "stateMutability": "view",
      "type": "function",
      "constant": true
    },
    {
      "inputs": [],
      "name": "pairAddress",
      "outputs": [
        {
          "internalType": "address",
          "name": "",
          "type": "address"
        }
      ],
      "stateMutability": "view",
      "type": "function",
      "constant": true
    },
    {
      "inputs": [],
      "name": "stakingAddress",
      "outputs": [
        {
          "internalType": "address",
          "name": "",
          "type": "address"
        }
      ],
      "stateMutability": "view",
      "type": "function",
      "constant": true
    },
    {
      "inputs": [],
      "name": "owner",
      "outputs": [
        {
          "internalType": "address",
          "name": "",
          "type": "address"
        }
      ],
      "stateMutability": "view",
      "type": "function",
      "constant": true
    },
    {
      "inputs": [
        {
          "internalType": "address",
          "name": "_address",
          "type": "address"
        }
      ],
      "name": "isFromWhitelisted",
      "outputs": [
        {
          "internalType": "bool",
          "name": "",
          "type": "bool"
        }
      ],
      "stateMutability": "view",
      "type": "function",
      "constant": true
    },
    {
      "inputs": [
        {
          "internalType": "address",
          "name": "_address",
          "type": "address"
        }
      ],
      "name": "isToWhitelisted",
      "outputs": [
        {
          "internalType": "bool",
          "name": "",
          "type": "bool"
        }
      ],
      "stateMutability": "view",
      "type": "function",
      "constant": true
    },
    {
      "inputs": [],
      "name": "totalSupply",
      "outputs": [
        {
          "internalType": "uint256",
          "name": "",
          "type": "uint256"
        }
      ],
      "stateMutability": "view",
      "type": "function",
      "constant": true
    },
    {
      "inputs": [
        {
          "internalType": "address",
          "name": "_user",
          "type": "address"
        }
      ],
      "name": "balanceOf",
      "outputs": [
        {
          "internalType": "uint256",
          "name": "",
          "type": "uint256"
        }
      ],
      "stateMutability": "view",
      "type": "function",
      "constant": true
    },
    {
      "inputs": [
        {
          "internalType": "address",
          "name": "_user",
          "type": "address"
        },
        {
          "internalType": "address",
          "name": "_spender",
          "type": "address"
        }
      ],
      "name": "allowance",
      "outputs": [
        {
          "internalType": "uint256",
          "name": "",
          "type": "uint256"
        }
      ],
      "stateMutability": "view",
      "type": "function",
      "constant": true
    },
    {
      "inputs": [
        {
          "internalType": "address",
          "name": "_user",
          "type": "address"
        }
      ],
      "name": "allInfoFor",
      "outputs": [
        {
          "internalType": "uint256",
          "name": "totalTokens",
          "type": "uint256"
        },
        {
          "internalType": "uint256",
          "name": "totalLPTokens",
          "type": "uint256"
        },
        {
          "internalType": "uint256",
          "name": "wethReserve",
          "type": "uint256"
        },
        {
          "internalType": "uint256",
          "name": "wsdmReserve",
          "type": "uint256"
        },
        {
          "internalType": "uint256",
          "name": "userAllowance",
          "type": "uint256"
        },
        {
          "internalType": "uint256",
          "name": "userBalance",
          "type": "uint256"
        },
        {
          "internalType": "uint256",
          "name": "userLPBalance",
          "type": "uint256"
        }
      ],
      "stateMutability": "view",
      "type": "function",
      "constant": true
    }
  ],
  "bytecode": "0x60806040523480156200001157600080fd5b50737a250d5630b4cf539739df2c5dacb4c659f2488d600060050160006101000a81548173ffffffffffffffffffffffffffffffffffffffff021916908373ffffffffffffffffffffffffffffffffffffffff160217905550600060050160009054906101000a900473ffffffffffffffffffffffffffffffffffffffff1673ffffffffffffffffffffffffffffffffffffffff1663c45a01556040518163ffffffff1660e01b8152600401602060405180830381865afa158015620000db573d6000803e3d6000fd5b505050506040513d601f19601f8201168201806040525081019062000101919062000487565b73ffffffffffffffffffffffffffffffffffffffff1663c9c65396600060050160009054906101000a900473ffffffffffffffffffffffffffffffffffffffff1673ffffffffffffffffffffffffffffffffffffffff1663ad5c46486040518163ffffffff1660e01b8152600401602060405180830381865afa1580156200018d573d6000803e3d6000fd5b505050506040513d601f19601f82011682018060405250810190620001b3919062000487565b306040518363ffffffff1660e01b8152600401620001d3929190620004ca565b6020604051808303816000875af1158015620001f3573d6000803e3d6000fd5b505050506040513d601f19601f8201168201806040525081019062000219919062000487565b600060060160006101000a81548173ffffffffffffffffffffffffffffffffffffffff021916908373ffffffffffffffffffffffffffffffffffffffff160217905550600060050160009054906101000a900473ffffffffffffffffffffffffffffffffffffffff1673ffffffffffffffffffffffffffffffffffffffff1663ad5c46486040518163ffffffff1660e01b8152600401602060405180830381865afa158015620002cd573d6000803e3d6000fd5b505050506040513d601f19601f82011682018060405250810190620002f3919062000487565b73ffffffffffffffffffffffffffffffffffffffff16600060060160009054906101000a900473ffffffffffffffffffffffffffffffffffffffff1673ffffffffffffffffffffffffffffffffffffffff16630dfe16816040518163ffffffff1660e01b8152600401602060405180830381865afa1580156200037a573d6000803e3d6000fd5b505050506040513d601f19601f82011682018060405250810190620003a0919062000487565b73ffffffffffffffffffffffffffffffffffffffff1614600060060160146101000a81548160ff02191690831515021790555033600060040160006101000a81548173ffffffffffffffffffffffffffffffffffffffff021916908373ffffffffffffffffffffffffffffffffffffffff160217905550620004f7565b600080fd5b600073ffffffffffffffffffffffffffffffffffffffff82169050919050565b60006200044f8262000422565b9050919050565b620004618162000442565b81146200046d57600080fd5b50565b600081519050620004818162000456565b92915050565b600060208284031215620004a0576200049f6200041d565b5b6000620004b08482850162000470565b91505092915050565b620004c48162000442565b82525050565b6000604082019050620004e16000830185620004b9565b620004f06020830184620004b9565b9392505050565b6138f980620005076000396000f3fe60806040523480156200001157600080fd5b5060043610620001605760003560e01c806340c10f1911620000c957806395d89b41116200008757806395d89b41146200040f578063a8b089821462000431578063a9059cbb1462000453578063d7b4be241462000489578063dd62ed3e14620004ab578063e6a6dcce14620004e15762000160565b806340c10f19146200033b57806342966c68146200035b57806357f6b812146200037b57806370a0823114620003b75780638da5cb5b14620003ed5762000160565b806323b872dd116200012357806323b872dd146200023557806325211fb9146200026b57806328687cc7146200028d5780633061ec3814620002c3578063313ce56714620002e35780634000aea014620003055762000160565b806306fdde031462000165578063095ea7b3146200018757806313af403514620001bd57806318160ddd14620001dd5780631e3c187f14620001ff575b600080fd5b6200016f62000501565b6040516200017e9190620017c4565b60405180910390f35b620001a560048036038101906200019f919062001892565b6200053a565b604051620001b49190620018f6565b60405180910390f35b620001db6004803603810190620001d5919062001913565b62000551565b005b620001e7620005da565b604051620001f6919062001956565b60405180910390f35b6200021d600480360381019062000217919062001913565b620005e6565b6040516200022c9190620018f6565b60405180910390f35b6200025360048036038101906200024d919062001973565b6200063e565b604051620002629190620018f6565b60405180910390f35b6200027562000738565b604051620002849190620019e0565b60405180910390f35b620002ab6004803603810190620002a5919062001913565b62000764565b604051620002ba9190620018f6565b60405180910390f35b620002e16004803603810190620002db919062001a56565b620007bc565b005b620002ed62000986565b604051620002fc919062001aa6565b60405180910390f35b6200032360048036038101906200031d919062001b31565b6200098b565b604051620003329190620018f6565b60405180910390f35b62000359600480360381019062000353919062001892565b62000a7c565b005b62000379600480360381019062000373919062001bb1565b62000bc1565b005b62000399600480360381019062000393919062001913565b62000cbf565b604051620003ae979695949392919062001be3565b60405180910390f35b620003d56004803603810190620003cf919062001913565b62000f4b565b604051620003e4919062001956565b60405180910390f35b620003f762000f99565b604051620004069190620019e0565b60405180910390f35b6200041962000fc5565b604051620004289190620017c4565b60405180910390f35b6200043b62000ffe565b6040516200044a9190620019e0565b60405180910390f35b6200047160048036038101906200046b919062001892565b6200102a565b604051620004809190620018f6565b60405180910390f35b6200049362001041565b604051620004a29190620019e0565b60405180910390f35b620004c96004803603810190620004c3919062001c60565b6200106d565b604051620004d8919062001956565b60405180910390f35b620004ff6004803603810190620004f9919062001cd8565b620010f9565b005b6040518060400160405280600a81526020017f5753444d20546f6b656e0000000000000000000000000000000000000000000081525081565b60006200054933848462001246565b905092915050565b6200055b62000f99565b73ffffffffffffffffffffffffffffffffffffffff163373ffffffffffffffffffffffffffffffffffffffff16146200059357600080fd5b80600060040160006101000a81548173ffffffffffffffffffffffffffffffffffffffff021916908373ffffffffffffffffffffffffffffffffffffffff16021790555050565b60008060000154905090565b60008060020160008373ffffffffffffffffffffffffffffffffffffffff1673ffffffffffffffffffffffffffffffffffffffff16815260200190815260200160002060009054906101000a900460ff169050919050565b6000806200064d85336200106d565b9050828110156200065d57600080fd5b7fffffffffffffffffffffffffffffffffffffffffffffffffffffffffffffffff8114620007215782600060010160008773ffffffffffffffffffffffffffffffffffffffff1673ffffffffffffffffffffffffffffffffffffffff16815260200190815260200160002060010160003373ffffffffffffffffffffffffffffffffffffffff1673ffffffffffffffffffffffffffffffffffffffff168152602001908152602001600020600082825462000719919062001d63565b925050819055505b6200072e85858562001341565b9150509392505050565b60008060070160009054906101000a900473ffffffffffffffffffffffffffffffffffffffff16905090565b60008060030160008373ffffffffffffffffffffffffffffffffffffffff1673ffffffffffffffffffffffffffffffffffffffff16815260200190815260200160002060009054906101000a900460ff169050919050565b620007c662000f99565b73ffffffffffffffffffffffffffffffffffffffff163273ffffffffffffffffffffffffffffffffffffffff16148015620008365750600073ffffffffffffffffffffffffffffffffffffffff166200081e62001041565b73ffffffffffffffffffffffffffffffffffffffff16145b6200084057600080fd5b80600060070160006101000a81548173ffffffffffffffffffffffffffffffffffffffff021916908373ffffffffffffffffffffffffffffffffffffffff160217905550600060070160009054906101000a900473ffffffffffffffffffffffffffffffffffffffff16600060060160009054906101000a900473ffffffffffffffffffffffffffffffffffffffff16604051620008de9062001712565b620008eb92919062001e42565b604051809103906000f08015801562000908573d6000803e3d6000fd5b50600060080160006101000a81548173ffffffffffffffffffffffffffffffffffffffff021916908373ffffffffffffffffffffffffffffffffffffffff16021790555062000982306200095b62001041565b7fffffffffffffffffffffffffffffffffffffffffffffffffffffffffffffffff62001246565b5050565b601281565b600080620009998662000f4b565b9050620009a833878762001341565b50600081620009b78862000f4b565b620009c3919062001d63565b90506000873b905060008163ffffffff16111562000a6d578773ffffffffffffffffffffffffffffffffffffffff16636be32e73338489896040518563ffffffff1660e01b815260040162000a1c949392919062001ec2565b6020604051808303816000875af115801562000a3c573d6000803e3d6000fd5b505050506040513d601f19601f8201168201806040525081019062000a62919062001f1f565b62000a6c57600080fd5b5b60019350505050949350505050565b600060070160009054906101000a900473ffffffffffffffffffffffffffffffffffffffff1673ffffffffffffffffffffffffffffffffffffffff163373ffffffffffffffffffffffffffffffffffffffff161462000ada57600080fd5b8060008001600082825462000af0919062001f51565b9250508190555080600060010160008473ffffffffffffffffffffffffffffffffffffffff1673ffffffffffffffffffffffffffffffffffffffff168152602001908152602001600020600001600082825462000b4e919062001f51565b925050819055508173ffffffffffffffffffffffffffffffffffffffff16600073ffffffffffffffffffffffffffffffffffffffff167fddf252ad1be2c89b69c2b068fc378daa952ba7f163c4a11628f55a4df523b3ef8360405162000bb5919062001956565b60405180910390a35050565b8062000bcd3362000f4b565b101562000bd957600080fd5b8060008001600082825462000bef919062001d63565b9250508190555080600060010160003373ffffffffffffffffffffffffffffffffffffffff1673ffffffffffffffffffffffffffffffffffffffff168152602001908152602001600020600001600082825462000c4d919062001d63565b92505081905550600073ffffffffffffffffffffffffffffffffffffffff163373ffffffffffffffffffffffffffffffffffffffff167fddf252ad1be2c89b69c2b068fc378daa952ba7f163c4a11628f55a4df523b3ef8360405162000cb4919062001956565b60405180910390a350565b600080600080600080600062000cd4620005da565b9650600060060160009054906101000a900473ffffffffffffffffffffffffffffffffffffffff1673ffffffffffffffffffffffffffffffffffffffff166318160ddd6040518163ffffffff1660e01b8152600401602060405180830381865afa15801562000d47573d6000803e3d6000fd5b505050506040513d601f19601f8201168201806040525081019062000d6d919062001fc5565b9550600080600060060160009054906101000a900473ffffffffffffffffffffffffffffffffffffffff1673ffffffffffffffffffffffffffffffffffffffff16630902f1ac6040518163ffffffff1660e01b8152600401606060405180830381865afa15801562000de3573d6000803e3d6000fd5b505050506040513d601f19601f8201168201806040525081019062000e09919062002083565b506dffffffffffffffffffffffffffff1691506dffffffffffffffffffffffffffff169150600060060160149054906101000a900460ff1662000e4d578062000e4f565b815b9650600060060160149054906101000a900460ff1662000e70578162000e72565b805b955062000e898a62000e8362000738565b6200106d565b945062000e968a62000f4b565b9350600060060160009054906101000a900473ffffffffffffffffffffffffffffffffffffffff1673ffffffffffffffffffffffffffffffffffffffff166370a082318b6040518263ffffffff1660e01b815260040162000ef89190620019e0565b602060405180830381865afa15801562000f16573d6000803e3d6000fd5b505050506040513d601f19601f8201168201806040525081019062000f3c919062001fc5565b92505050919395979092949650565b60008060010160008373ffffffffffffffffffffffffffffffffffffffff1673ffffffffffffffffffffffffffffffffffffffff168152602001908152602001600020600001549050919050565b60008060040160009054906101000a900473ffffffffffffffffffffffffffffffffffffffff16905090565b6040518060400160405280600481526020017f5753444d0000000000000000000000000000000000000000000000000000000081525081565b60008060060160009054906101000a900473ffffffffffffffffffffffffffffffffffffffff16905090565b60006200103933848462001341565b905092915050565b60008060080160009054906101000a900473ffffffffffffffffffffffffffffffffffffffff16905090565b60008060010160008473ffffffffffffffffffffffffffffffffffffffff1673ffffffffffffffffffffffffffffffffffffffff16815260200190815260200160002060010160008373ffffffffffffffffffffffffffffffffffffffff1673ffffffffffffffffffffffffffffffffffffffff16815260200190815260200160002054905092915050565b6200110362000f99565b73ffffffffffffffffffffffffffffffffffffffff163373ffffffffffffffffffffffffffffffffffffffff16146200113b57600080fd5b81600060030160008573ffffffffffffffffffffffffffffffffffffffff1673ffffffffffffffffffffffffffffffffffffffff16815260200190815260200160002060006101000a81548160ff02191690831515021790555080600060020160008573ffffffffffffffffffffffffffffffffffffffff1673ffffffffffffffffffffffffffffffffffffffff16815260200190815260200160002060006101000a81548160ff0219169083151502179055508273ffffffffffffffffffffffffffffffffffffffff167f855852ede06df792cbe12bbb8b292fd0d251a1dcfea1f072d5793f1930568ebf838360405162001239929190620020df565b60405180910390a2505050565b600081600060010160008673ffffffffffffffffffffffffffffffffffffffff1673ffffffffffffffffffffffffffffffffffffffff16815260200190815260200160002060010160008573ffffffffffffffffffffffffffffffffffffffff1673ffffffffffffffffffffffffffffffffffffffff168152602001908152602001600020819055508273ffffffffffffffffffffffffffffffffffffffff168473ffffffffffffffffffffffffffffffffffffffff167f8c5be1e5ebec7d5bd14f71427d1e84f3dd0314c0f7b2291e5b200ac8c7c3b925846040516200132e919062001956565b60405180910390a3600190509392505050565b6000816200134f8562000f4b565b10156200135b57600080fd5b81600060010160008673ffffffffffffffffffffffffffffffffffffffff1673ffffffffffffffffffffffffffffffffffffffff1681526020019081526020016000206000016000828254620013b2919062001d63565b925050819055506000620013c562001041565b73ffffffffffffffffffffffffffffffffffffffff168573ffffffffffffffffffffffffffffffffffffffff1614806200143357506200140462001041565b73ffffffffffffffffffffffffffffffffffffffff168473ffffffffffffffffffffffffffffffffffffffff16145b806200147357506200144462000738565b73ffffffffffffffffffffffffffffffffffffffff168473ffffffffffffffffffffffffffffffffffffffff16145b80620014865750620014858562000764565b5b806200149957506200149884620005e6565b5b62001627576064600184620014af91906200210c565b620014bb91906200219c565b9050600030905081600060010160008373ffffffffffffffffffffffffffffffffffffffff1673ffffffffffffffffffffffffffffffffffffffff168152602001908152602001600020600001600082825462001519919062001f51565b925050819055508073ffffffffffffffffffffffffffffffffffffffff168673ffffffffffffffffffffffffffffffffffffffff167fddf252ad1be2c89b69c2b068fc378daa952ba7f163c4a11628f55a4df523b3ef846040516200157f919062001956565b60405180910390a3600060080160009054906101000a900473ffffffffffffffffffffffffffffffffffffffff1673ffffffffffffffffffffffffffffffffffffffff1663bd77ac2c620015d38362000f4b565b6040518263ffffffff1660e01b8152600401620015f1919062001956565b600060405180830381600087803b1580156200160c57600080fd5b505af115801562001621573d6000803e3d6000fd5b50505050505b808362001635919062001d63565b600060010160008673ffffffffffffffffffffffffffffffffffffffff1673ffffffffffffffffffffffffffffffffffffffff16815260200190815260200160002060000160008282546200168b919062001f51565b925050819055508373ffffffffffffffffffffffffffffffffffffffff168573ffffffffffffffffffffffffffffffffffffffff167fddf252ad1be2c89b69c2b068fc378daa952ba7f163c4a11628f55a4df523b3ef8386620016ef919062001d63565b604051620016fe919062001956565b60405180910390a360019150509392505050565b6116ef80620021d583390190565b600081519050919050565b600082825260208201905092915050565b60005b838110156200175c5780820151818401526020810190506200173f565b838111156200176c576000848401525b50505050565b6000601f19601f8301169050919050565b6000620017908262001720565b6200179c81856200172b565b9350620017ae8185602086016200173c565b620017b98162001772565b840191505092915050565b60006020820190508181036000830152620017e0818462001783565b905092915050565b600080fd5b600080fd5b600073ffffffffffffffffffffffffffffffffffffffff82169050919050565b60006200181f82620017f2565b9050919050565b620018318162001812565b81146200183d57600080fd5b50565b600081359050620018518162001826565b92915050565b6000819050919050565b6200186c8162001857565b81146200187857600080fd5b50565b6000813590506200188c8162001861565b92915050565b60008060408385031215620018ac57620018ab620017e8565b5b6000620018bc8582860162001840565b9250506020620018cf858286016200187b565b9150509250929050565b60008115159050919050565b620018f081620018d9565b82525050565b60006020820190506200190d6000830184620018e5565b92915050565b6000602082840312156200192c576200192b620017e8565b5b60006200193c8482850162001840565b91505092915050565b620019508162001857565b82525050565b60006020820190506200196d600083018462001945565b92915050565b6000806000606084860312156200198f576200198e620017e8565b5b60006200199f8682870162001840565b9350506020620019b28682870162001840565b9250506040620019c5868287016200187b565b9150509250925092565b620019da8162001812565b82525050565b6000602082019050620019f76000830184620019cf565b92915050565b600062001a0a82620017f2565b9050919050565b600062001a1e82620019fd565b9050919050565b62001a308162001a11565b811462001a3c57600080fd5b50565b60008135905062001a508162001a25565b92915050565b60006020828403121562001a6f5762001a6e620017e8565b5b600062001a7f8482850162001a3f565b91505092915050565b600060ff82169050919050565b62001aa08162001a88565b82525050565b600060208201905062001abd600083018462001a95565b92915050565b600080fd5b600080fd5b600080fd5b60008083601f84011262001aeb5762001aea62001ac3565b5b8235905067ffffffffffffffff81111562001b0b5762001b0a62001ac8565b5b60208301915083600182028301111562001b2a5762001b2962001acd565b5b9250929050565b6000806000806060858703121562001b4e5762001b4d620017e8565b5b600062001b5e8782880162001840565b945050602062001b71878288016200187b565b935050604085013567ffffffffffffffff81111562001b955762001b94620017ed565b5b62001ba38782880162001ad2565b925092505092959194509250565b60006020828403121562001bca5762001bc9620017e8565b5b600062001bda848285016200187b565b91505092915050565b600060e08201905062001bfa600083018a62001945565b62001c09602083018962001945565b62001c18604083018862001945565b62001c27606083018762001945565b62001c36608083018662001945565b62001c4560a083018562001945565b62001c5460c083018462001945565b98975050505050505050565b6000806040838503121562001c7a5762001c79620017e8565b5b600062001c8a8582860162001840565b925050602062001c9d8582860162001840565b9150509250929050565b62001cb281620018d9565b811462001cbe57600080fd5b50565b60008135905062001cd28162001ca7565b92915050565b60008060006060848603121562001cf45762001cf3620017e8565b5b600062001d048682870162001840565b935050602062001d178682870162001cc1565b925050604062001d2a8682870162001cc1565b9150509250925092565b7f4e487b7100000000000000000000000000000000000000000000000000000000600052601160045260246000fd5b600062001d708262001857565b915062001d7d8362001857565b92508282101562001d935762001d9262001d34565b5b828203905092915050565b6000819050919050565b600062001dc962001dc362001dbd84620017f2565b62001d9e565b620017f2565b9050919050565b600062001ddd8262001da8565b9050919050565b600062001df18262001dd0565b9050919050565b62001e038162001de4565b82525050565b600062001e168262001da8565b9050919050565b600062001e2a8262001e09565b9050919050565b62001e3c8162001e1d565b82525050565b600060408201905062001e59600083018562001df8565b62001e68602083018462001e31565b9392505050565b600082825260208201905092915050565b82818337600083830152505050565b600062001e9d838562001e6f565b935062001eac83858462001e80565b62001eb78362001772565b840190509392505050565b600060608201905062001ed96000830187620019cf565b62001ee8602083018662001945565b818103604083015262001efd81848662001e8f565b905095945050505050565b60008151905062001f198162001ca7565b92915050565b60006020828403121562001f385762001f37620017e8565b5b600062001f488482850162001f08565b91505092915050565b600062001f5e8262001857565b915062001f6b8362001857565b9250827fffffffffffffffffffffffffffffffffffffffffffffffffffffffffffffffff0382111562001fa35762001fa262001d34565b5b828201905092915050565b60008151905062001fbf8162001861565b92915050565b60006020828403121562001fde5762001fdd620017e8565b5b600062001fee8482850162001fae565b91505092915050565b60006dffffffffffffffffffffffffffff82169050919050565b6200201c8162001ff7565b81146200202857600080fd5b50565b6000815190506200203c8162002011565b92915050565b600063ffffffff82169050919050565b6200205d8162002042565b81146200206957600080fd5b50565b6000815190506200207d8162002052565b92915050565b6000806000606084860312156200209f576200209e620017e8565b5b6000620020af868287016200202b565b9350506020620020c2868287016200202b565b9250506040620020d5868287016200206c565b9150509250925092565b6000604082019050620020f66000830185620018e5565b620021056020830184620018e5565b9392505050565b6000620021198262001857565b9150620021268362001857565b9250817fffffffffffffffffffffffffffffffffffffffffffffffffffffffffffffffff048311821515161562002162576200216162001d34565b5b828202905092915050565b7f4e487b7100000000000000000000000000000000000000000000000000000000600052601260045260246000fd5b6000620021a98262001857565b9150620021b68362001857565b925082620021c957620021c86200216d565b5b82820490509291505056fe60806040523480156200001157600080fd5b50604051620016ef380380620016ef8339818101604052810190620000379190620001e2565b81600060040160006101000a81548173ffffffffffffffffffffffffffffffffffffffff021916908373ffffffffffffffffffffffffffffffffffffffff16021790555033600060050160006101000a81548173ffffffffffffffffffffffffffffffffffffffff021916908373ffffffffffffffffffffffffffffffffffffffff16021790555080600060060160006101000a81548173ffffffffffffffffffffffffffffffffffffffff021916908373ffffffffffffffffffffffffffffffffffffffff160217905550505062000229565b600080fd5b600073ffffffffffffffffffffffffffffffffffffffff82169050919050565b60006200013d8262000110565b9050919050565b6000620001518262000130565b9050919050565b620001638162000144565b81146200016f57600080fd5b50565b600081519050620001838162000158565b92915050565b6000620001968262000110565b9050919050565b6000620001aa8262000189565b9050919050565b620001bc816200019d565b8114620001c857600080fd5b50565b600081519050620001dc81620001b1565b92915050565b60008060408385031215620001fc57620001fb6200010b565b5b60006200020c8582860162000172565b92505060206200021f85828601620001cb565b9150509250929050565b6114b680620002396000396000f3fe608060405234801561001057600080fd5b506004361061009e5760003560e01c80635c99d8cc116100665780635c99d8cc1461014c578063853828b61461017c578063b6b55f2514610186578063bd77ac2c146101a2578063ff50abdc146101be5761009e565b80632e1a7d4d146100a357806336efd16f146100bf578063479ba7ae146100db5780634e71d92d1461010b57806357f6b81214610115575b600080fd5b6100bd60048036038101906100b89190610e3f565b6101dc565b005b6100d960048036038101906100d49190610eca565b6103dd565b005b6100f560048036038101906100f09190610f0a565b6105cd565b6040516101029190610f46565b60405180910390f35b610113610653565b005b61012f600480360381019061012a9190610f0a565b6107d7565b604051610143989796959493929190610f61565b60405180910390f35b61016660048036038101906101619190610f0a565b610a0a565b6040516101739190610f46565b60405180910390f35b610184610a58565b005b6101a0600480360381019061019b9190610e3f565b610a7b565b005b6101bc60048036038101906101b79190610e3f565b610a88565b005b6101c6610b44565b6040516101d39190610f46565b60405180910390f35b6000811180156101f457506101f033610a0a565b8111155b6101fd57600080fd5b610205610b50565b80600080016000828254610219919061100e565b9250508190555080600060030160003373ffffffffffffffffffffffffffffffffffffffff1673ffffffffffffffffffffffffffffffffffffffff1681526020019081526020016000206000016000828254610275919061100e565b925050819055506000600101548161028d9190611042565b600060030160003373ffffffffffffffffffffffffffffffffffffffff1673ffffffffffffffffffffffffffffffffffffffff16815260200190815260200160002060010160008282546102e191906110a6565b92505081905550600060060160009054906101000a900473ffffffffffffffffffffffffffffffffffffffff1673ffffffffffffffffffffffffffffffffffffffff1663a9059cbb33836040518363ffffffff1660e01b8152600401610348929190611149565b6020604051808303816000875af1158015610367573d6000803e3d6000fd5b505050506040513d601f19601f8201168201806040525081019061038b91906111aa565b503373ffffffffffffffffffffffffffffffffffffffff167f884edad9ce6fa2440d8a54cc123490eb96d2768479d49ff9c7366125a9424364826040516103d29190610f46565b60405180910390a250565b600082116103ea57600080fd5b6103f2610b50565b600060060160009054906101000a900473ffffffffffffffffffffffffffffffffffffffff1673ffffffffffffffffffffffffffffffffffffffff166323b872dd3330856040518463ffffffff1660e01b8152600401610454939291906111d7565b6020604051808303816000875af1158015610473573d6000803e3d6000fd5b505050506040513d601f19601f8201168201806040525081019061049791906111aa565b50816000800160008282546104ac919061120e565b9250508190555081600060030160008373ffffffffffffffffffffffffffffffffffffffff1673ffffffffffffffffffffffffffffffffffffffff1681526020019081526020016000206000016000828254610508919061120e565b92505081905550600060010154826105209190611042565b600060030160008373ffffffffffffffffffffffffffffffffffffffff1673ffffffffffffffffffffffffffffffffffffffff16815260200190815260200160002060010160008282546105749190611264565b925050819055508073ffffffffffffffffffffffffffffffffffffffff167fe1fffcc4923d04b559f4d29a8bfc6cda04eb5b0d3c460751c2402c5c5cc9109c836040516105c19190610f46565b60405180910390a25050565b600068010000000000000000600060030160008473ffffffffffffffffffffffffffffffffffffffff1673ffffffffffffffffffffffffffffffffffffffff1681526020019081526020016000206001015461062884610a0a565b6000600101546106389190611042565b61064291906110a6565b61064c9190611327565b9050919050565b61065b610b50565b6000610666336105cd565b905060008111156107d45768010000000000000000816106869190611042565b600060030160003373ffffffffffffffffffffffffffffffffffffffff1673ffffffffffffffffffffffffffffffffffffffff16815260200190815260200160002060010160008282546106da9190611264565b92505081905550600060050160009054906101000a900473ffffffffffffffffffffffffffffffffffffffff1673ffffffffffffffffffffffffffffffffffffffff1663a9059cbb33836040518363ffffffff1660e01b8152600401610741929190611149565b6020604051808303816000875af1158015610760573d6000803e3d6000fd5b505050506040513d601f19601f8201168201806040525081019061078491906111aa565b503373ffffffffffffffffffffffffffffffffffffffff167f47cee97cb7acd717b3c0aa1435d004cd5b3c8c57d70dbceb4e4458bbd60e39d4826040516107cb9190610f46565b60405180910390a25b50565b6000806000806000806000806107eb610b44565b9750600060050160009054906101000a900473ffffffffffffffffffffffffffffffffffffffff1673ffffffffffffffffffffffffffffffffffffffff166357f6b812306040518263ffffffff1660e01b815260040161084b9190611358565b60e060405180830381865afa158015610868573d6000803e3d6000fd5b505050506040513d601f19601f8201168201806040525081019061088c9190611388565b90919293949550909150905050809750819850829950505050600060060160009054906101000a900473ffffffffffffffffffffffffffffffffffffffff1673ffffffffffffffffffffffffffffffffffffffff166370a082318a6040518263ffffffff1660e01b81526004016109039190611358565b602060405180830381865afa158015610920573d6000803e3d6000fd5b505050506040513d601f19601f82011682018060405250810190610944919061142a565b9350600060060160009054906101000a900473ffffffffffffffffffffffffffffffffffffffff1673ffffffffffffffffffffffffffffffffffffffff1663dd62ed3e8a306040518363ffffffff1660e01b81526004016109a6929190611457565b602060405180830381865afa1580156109c3573d6000803e3d6000fd5b505050506040513d601f19601f820116820180604052508101906109e7919061142a565b92506109f289610a0a565b91506109fd896105cd565b9050919395975091939597565b60008060030160008373ffffffffffffffffffffffffffffffffffffffff1673ffffffffffffffffffffffffffffffffffffffff168152602001908152602001600020600001549050919050565b6000610a6333610a0a565b90506000811115610a7857610a77816101dc565b5b50565b610a8581336103dd565b50565b6000811115610b4157600060050160009054906101000a900473ffffffffffffffffffffffffffffffffffffffff1673ffffffffffffffffffffffffffffffffffffffff166323b872dd3330846040518463ffffffff1660e01b8152600401610af3939291906111d7565b6020604051808303816000875af1158015610b12573d6000803e3d6000fd5b505050506040513d601f19601f82011682018060405250810190610b3691906111aa565b50610b4081610d32565b5b50565b60008060000154905090565b600030905060008060050160009054906101000a900473ffffffffffffffffffffffffffffffffffffffff1673ffffffffffffffffffffffffffffffffffffffff166370a08231836040518263ffffffff1660e01b8152600401610bb49190611358565b602060405180830381865afa158015610bd1573d6000803e3d6000fd5b505050506040513d601f19601f82011682018060405250810190610bf5919061142a565b9050600060040160009054906101000a900473ffffffffffffffffffffffffffffffffffffffff1673ffffffffffffffffffffffffffffffffffffffff16634e71d92d6040518163ffffffff1660e01b8152600401600060405180830381600087803b158015610c6457600080fd5b505af1158015610c78573d6000803e3d6000fd5b50505050610d2e81600060050160009054906101000a900473ffffffffffffffffffffffffffffffffffffffff1673ffffffffffffffffffffffffffffffffffffffff166370a08231856040518263ffffffff1660e01b8152600401610cde9190611358565b602060405180830381865afa158015610cfb573d6000803e3d6000fd5b505050506040513d601f19601f82011682018060405250810190610d1f919061142a565b610d29919061100e565b610d32565b5050565b6000811115610e01576000610d45610b44565b1415610d6c578060006002016000828254610d60919061120e565b92505081905550610dc9565b610d74610b44565b6801000000000000000060006002015483610d8f919061120e565b610d999190611042565b610da39190611327565b60006001016000828254610db7919061120e565b92505081905550600080600201819055505b7f3ac0594a85a20354f9dc74f33728416d19ce00d04a406c108cc2dcf2cecea13481604051610df89190610f46565b60405180910390a15b50565b600080fd5b6000819050919050565b610e1c81610e09565b8114610e2757600080fd5b50565b600081359050610e3981610e13565b92915050565b600060208284031215610e5557610e54610e04565b5b6000610e6384828501610e2a565b91505092915050565b600073ffffffffffffffffffffffffffffffffffffffff82169050919050565b6000610e9782610e6c565b9050919050565b610ea781610e8c565b8114610eb257600080fd5b50565b600081359050610ec481610e9e565b92915050565b60008060408385031215610ee157610ee0610e04565b5b6000610eef85828601610e2a565b9250506020610f0085828601610eb5565b9150509250929050565b600060208284031215610f2057610f1f610e04565b5b6000610f2e84828501610eb5565b91505092915050565b610f4081610e09565b82525050565b6000602082019050610f5b6000830184610f37565b92915050565b600061010082019050610f77600083018b610f37565b610f84602083018a610f37565b610f916040830189610f37565b610f9e6060830188610f37565b610fab6080830187610f37565b610fb860a0830186610f37565b610fc560c0830185610f37565b610fd260e0830184610f37565b9998505050505050505050565b7f4e487b7100000000000000000000000000000000000000000000000000000000600052601160045260246000fd5b600061101982610e09565b915061102483610e09565b92508282101561103757611036610fdf565b5b828203905092915050565b600061104d82610e09565b915061105883610e09565b9250817fffffffffffffffffffffffffffffffffffffffffffffffffffffffffffffffff048311821515161561109157611090610fdf565b5b828202905092915050565b6000819050919050565b60006110b18261109c565b91506110bc8361109c565b9250827f8000000000000000000000000000000000000000000000000000000000000000018212600084121516156110f7576110f6610fdf565b5b827f7fffffffffffffffffffffffffffffffffffffffffffffffffffffffffffffff01821360008412161561112f5761112e610fdf565b5b828203905092915050565b61114381610e8c565b82525050565b600060408201905061115e600083018561113a565b61116b6020830184610f37565b9392505050565b60008115159050919050565b61118781611172565b811461119257600080fd5b50565b6000815190506111a48161117e565b92915050565b6000602082840312156111c0576111bf610e04565b5b60006111ce84828501611195565b91505092915050565b60006060820190506111ec600083018661113a565b6111f9602083018561113a565b6112066040830184610f37565b949350505050565b600061121982610e09565b915061122483610e09565b9250827fffffffffffffffffffffffffffffffffffffffffffffffffffffffffffffffff0382111561125957611258610fdf565b5b828201905092915050565b600061126f8261109c565b915061127a8361109c565b9250817f7fffffffffffffffffffffffffffffffffffffffffffffffffffffffffffffff038313600083121516156112b5576112b4610fdf565b5b817f80000000000000000000000000000000000000000000000000000000000000000383126000831216156112ed576112ec610fdf565b5b828201905092915050565b7f4e487b7100000000000000000000000000000000000000000000000000000000600052601260045260246000fd5b600061133282610e09565b915061133d83610e09565b92508261134d5761134c6112f8565b5b828204905092915050565b600060208201905061136d600083018461113a565b92915050565b60008151905061138281610e13565b92915050565b600080600080600080600060e0888a0312156113a7576113a6610e04565b5b60006113b58a828b01611373565b97505060206113c68a828b01611373565b96505060406113d78a828b01611373565b95505060606113e88a828b01611373565b94505060806113f98a828b01611373565b93505060a061140a8a828b01611373565b92505060c061141b8a828b01611373565b91505092959891949750929550565b6000602082840312156114405761143f610e04565b5b600061144e84828501611373565b91505092915050565b600060408201905061146c600083018561113a565b611479602083018461113a565b939250505056fea2646970667358221220d3bd5621f3e0490c41114f41929795fc12f466bd1ca6bf82f8e74854b3f9ad8f64736f6c634300080a0033a2646970667358221220feb2c1fa63eac3d2d660129a2d2d926d348f01eac2fee8acddd8284a8d60acb764736f6c634300080a0033",
  "immutableReferences": {},
  "source": "// SPDX-License-Identifier: MIT\r\n\r\npragma solidity ^0.8.10;\r\n\r\n\r\nimport \"./Game.sol\";\r\nimport \"./Staking.sol\";\r\n\r\n\r\ninterface Callable {\r\n\tfunction tokenCallback(address _from, uint256 _tokens, bytes calldata _data) external returns (bool);\r\n}\r\n\r\ninterface Receiver {\r\n\tfunction onERC721Received(address _operator, address _from, uint256 _tokenId, bytes calldata _data) external returns (bytes4);\r\n}\r\n\r\ninterface Router {\r\n\tfunction WETH() external pure returns (address);\r\n\tfunction factory() external pure returns (address);\r\n}\r\n\r\ninterface Factory {\r\n\tfunction getPair(address, address) external view returns (address);\r\n\tfunction createPair(address, address) external returns (address);\r\n}\r\n\r\ninterface Pair {\r\n\tfunction token0() external view returns (address);\r\n\tfunction totalSupply() external view returns (uint256);\r\n\tfunction balanceOf(address) external view returns (uint256);\r\n\tfunction allowance(address, address) external view returns (uint256);\r\n\tfunction getReserves() external view returns (uint112 reserve0, uint112 reserve1, uint32 blockTimestampLast);\r\n\tfunction transfer(address, uint256) external returns (bool);\r\n\tfunction transferFrom(address, address, uint256) external returns (bool);\r\n}\r\n\r\ncontract WSDM {\r\n\r\n\tuint256 constant private UINT_MAX = type(uint256).max;\r\n\tuint256 constant private TRANSFER_FEE = 1; // 1% per transfer\r\n\r\n\tstring constant public name = \"WSDM Token\";\r\n\tstring constant public symbol = \"WSDM\";\r\n\tuint8 constant public decimals = 18;\r\n\r\n\tstruct User {\r\n\t\tuint256 balance;\r\n\t\tmapping(address => uint256) allowance;\r\n\t}\r\n\r\n\tstruct Info {\r\n\t\tuint256 totalSupply;\r\n\t\tmapping(address => User) users;\r\n\t\tmapping(address => bool) toWhitelist;\r\n\t\tmapping(address => bool) fromWhitelist;\r\n\t\taddress owner;\r\n\t\tRouter router;\r\n\t\tPair pair;\r\n\t\tbool weth0;\r\n\t\tGame g;\r\n\t\tStaking staking;\r\n\t}\r\n\tInfo private info;\r\n\r\n\r\n\tevent Transfer(address indexed from, address indexed to, uint256 tokens);\r\n\tevent Approval(address indexed owner, address indexed spender, uint256 tokens);\r\n\tevent WhitelistUpdated(address indexed user, bool fromWhitelisted, bool toWhitelisted);\r\n\r\n\r\n\tmodifier _onlyOwner() {\r\n\t\trequire(msg.sender == owner());\r\n\t\t_;\r\n\t}\r\n\r\n\r\n\tconstructor() {\r\n\t\tinfo.router = Router(0x7a250d5630B4cF539739dF2C5dAcb4c659F2488D);\r\n\t\tinfo.pair = Pair(Factory(info.router.factory()).createPair(info.router.WETH(), address(this)));\r\n\t\tinfo.weth0 = info.pair.token0() == info.router.WETH();\r\n\t\tinfo.owner = msg.sender;\r\n\t}\r\n\r\n\tfunction setOwner(address _owner) external _onlyOwner {\r\n\t\tinfo.owner = _owner;\r\n\t}\r\n\r\n\tfunction setWhitelisted(address _address, bool _fromWhitelisted, bool _toWhitelisted) external _onlyOwner {\r\n\t\tinfo.fromWhitelist[_address] = _fromWhitelisted;\r\n\t\tinfo.toWhitelist[_address] = _toWhitelisted;\r\n\t\temit WhitelistUpdated(_address, _fromWhitelisted, _toWhitelisted);\r\n\t}\r\n\r\n\tfunction deploySetGame(Game _g) external {\r\n\t\trequire(tx.origin == owner() && stakingAddress() == address(0x0));\r\n\t\tinfo.g = _g;\r\n\t\tinfo.staking = new Staking(info.g, info.pair);\r\n\t\t_approve(address(this), stakingAddress(), UINT_MAX);\r\n\t}\r\n\r\n\r\n\tfunction mint(address _receiver, uint256 _tokens) external {\r\n\t\trequire(msg.sender == address(info.g));\r\n\t\tinfo.totalSupply += _tokens;\r\n\t\tinfo.users[_receiver].balance += _tokens;\r\n\t\temit Transfer(address(0x0), _receiver, _tokens);\r\n\t}\r\n\r\n\tfunction burn(uint256 _tokens) external {\r\n\t\trequire(balanceOf(msg.sender) >= _tokens);\r\n\t\tinfo.totalSupply -= _tokens;\r\n\t\tinfo.users[msg.sender].balance -= _tokens;\r\n\t\temit Transfer(msg.sender, address(0x0), _tokens);\r\n\t}\r\n\r\n\tfunction transfer(address _to, uint256 _tokens) external returns (bool) {\r\n\t\treturn _transfer(msg.sender, _to, _tokens);\r\n\t}\r\n\r\n\tfunction approve(address _spender, uint256 _tokens) external returns (bool) {\r\n\t\treturn _approve(msg.sender, _spender, _tokens);\r\n\t}\r\n\r\n\tfunction transferFrom(address _from, address _to, uint256 _tokens) external returns (bool) {\r\n\t\tuint256 _allowance = allowance(_from, msg.sender);\r\n\t\trequire(_allowance >= _tokens);\r\n\t\tif (_allowance != UINT_MAX) {\r\n\t\t\tinfo.users[_from].allowance[msg.sender] -= _tokens;\r\n\t\t}\r\n\t\treturn _transfer(_from, _to, _tokens);\r\n\t}\r\n\r\n\tfunction transferAndCall(address _to, uint256 _tokens, bytes calldata _data) external returns (bool) {\r\n\t\tuint256 _balanceBefore = balanceOf(_to);\r\n\t\t_transfer(msg.sender, _to, _tokens);\r\n\t\tuint256 _tokensReceived = balanceOf(_to) - _balanceBefore;\r\n\t\tuint32 _size;\r\n\t\tassembly {\r\n\t\t\t_size := extcodesize(_to)\r\n\t\t}\r\n\t\tif (_size > 0) {\r\n\t\t\trequire(Callable(_to).tokenCallback(msg.sender, _tokensReceived, _data));\r\n\t\t}\r\n\t\treturn true;\r\n\t}\r\n\t\r\n\r\n\tfunction bullsGameAddress() public view returns (address) {\r\n\t\treturn address(info.g);\r\n\t}\r\n\r\n\tfunction pairAddress() external view returns (address) {\r\n\t\treturn address(info.pair);\r\n\t}\r\n\r\n\tfunction stakingAddress() public view returns (address) {\r\n\t\treturn address(info.staking);\r\n\t}\r\n\r\n\tfunction owner() public view returns (address) {\r\n\t\treturn info.owner;\r\n\t}\r\n\r\n\tfunction isFromWhitelisted(address _address) public view returns (bool) {\r\n\t\treturn info.fromWhitelist[_address];\r\n\t}\r\n\r\n\tfunction isToWhitelisted(address _address) public view returns (bool) {\r\n\t\treturn info.toWhitelist[_address];\r\n\t}\r\n\t\r\n\tfunction totalSupply() public view returns (uint256) {\r\n\t\treturn info.totalSupply;\r\n\t}\r\n\r\n\tfunction balanceOf(address _user) public view returns (uint256) {\r\n\t\treturn info.users[_user].balance;\r\n\t}\r\n\r\n\tfunction allowance(address _user, address _spender) public view returns (uint256) {\r\n\t\treturn info.users[_user].allowance[_spender];\r\n\t}\r\n\r\n\tfunction allInfoFor(address _user) external view returns (uint256 totalTokens, uint256 totalLPTokens, uint256 wethReserve, uint256 wsdmReserve, uint256 userAllowance, uint256 userBalance, uint256 userLPBalance) {\r\n\t\ttotalTokens = totalSupply();\r\n\t\ttotalLPTokens = info.pair.totalSupply();\r\n\t\t(uint256 _res0, uint256 _res1, ) = info.pair.getReserves();\r\n\t\twethReserve = info.weth0 ? _res0 : _res1;\r\n\t\twsdmReserve = info.weth0 ? _res1 : _res0;\r\n\t\tuserAllowance = allowance(_user, bullsGameAddress());\r\n\t\tuserBalance = balanceOf(_user);\r\n\t\tuserLPBalance = info.pair.balanceOf(_user);\r\n\t}\r\n\r\n\r\n\tfunction _approve(address _owner, address _spender, uint256 _tokens) internal returns (bool) {\r\n\t\tinfo.users[_owner].allowance[_spender] = _tokens;\r\n\t\temit Approval(_owner, _spender, _tokens);\r\n\t\treturn true;\r\n\t}\r\n\t\r\n\tfunction _transfer(address _from, address _to, uint256 _tokens) internal returns (bool) {\r\n\t\trequire(balanceOf(_from) >= _tokens);\r\n\t\tinfo.users[_from].balance -= _tokens;\r\n\t\tuint256 _fee = 0;\r\n\t\tif (!(_from == stakingAddress() || _to == stakingAddress() || _to == bullsGameAddress() || isFromWhitelisted(_from) || isToWhitelisted(_to))) {\r\n\t\t\t_fee = _tokens * TRANSFER_FEE / 100;\r\n\t\t\taddress _this = address(this);\r\n\t\t\tinfo.users[_this].balance += _fee;\r\n\t\t\temit Transfer(_from, _this, _fee);\r\n\t\t\tinfo.staking.disburse(balanceOf(_this));\r\n\t\t}\r\n\t\tinfo.users[_to].balance += _tokens - _fee;\r\n\t\temit Transfer(_from, _to, _tokens - _fee);\r\n\t\treturn true;\r\n\t}\r\n}",
  "sourcePath": "C:\\Users\\Faouz\\OneDrive\\Desktop\\gamennew\\nftGame\\GameLatestVerison\\Truffle\\contracts\\WSDM.sol",
  "compiler": {
    "name": "solc",
    "version": "0.8.10+commit.fc410830.Emscripten.clang"
  },
  "schemaVersion": "3.4.3",
  "updatedAt": "2021-12-07T13:36:48.360Z",
  "networkType": "ethereum",
  "devdoc": {
    "kind": "dev",
    "methods": {},
    "version": 1
  },
  "userdoc": {
    "kind": "user",
    "methods": {},
    "version": 1
  }
}